:060000000A128A110E280D
:10000800FE00030EF1000A08F2007F08F3000A124E
:100018008A1120280A128A1111280A128A11162117
:100028000A128A11FB00F601F701F801F901FA0139
:1000380083010A128A119328831203138C1D252821
:1000480026287F281412141B2A282B282F28941FAF
:100058002E282F2834281308FA0014139413141682
:1000680083160313941A39283A285D2814193D2851
:100078003E285D280430F000F00B40280000831271
:1000880003131308FA0048284928831203138C1114
:10009800141683160313141C522853284D28831250
:1000A80003131308F800A630F000F00B59280000DD
:1000B8007C28941A602861287C28141D64286528E7
:1000C8007C28831203131308FA00831603131410F1
:1000D80079088312031393001416A630F000F00B6E
:1000E800732800008316031314187B287C287628AD
:1000F800831203138C110B1D822883288A28013050
:10010800FF007F08F707833081000B117308FF0099
:1001180072088A00710E8300FE0E7E0E09000A1214
:100128008A11B5200A128A1178080F39FB007B085A
:100138000A128A11F0200A128A11F0307805F500A7
:1001480010307506031DA928AA28AE2883120313A8
:100158000714982883120313071098280A128A1183
:100168000E288316031788018901831603130710C5
:100178008312031307108316031307118312031343
:1001880007117030831603138F040F1430300A12CE
:100198008A11D6200A128A110A128A1106210A1215
:1001A8008A110800F400740883160313930036308C
:1001B80083120313940080308316031394000130D4
:1001C8009100871507168B170B17831203138C11D1
:1001D800831603138C150800F40028307702031CDB
:1001E800F628F728FC28F7018312031307150529B9
:1001F80077087406031D01290229052983120313B0
:100208000711080083160313811281110108F839B8
:10021800023881008B160B118B178330831203135E
:0602280081000800023411
:04400E00D420FF3F7C
:00000001FF
