:060000000A128A110E280D
:10000800FE00030EF1000A08F2007F08F3000A124E
:100018008A111F280A128A1111280A128A11152119
:100028000A128A11FA00F601F701F801F9018301B1
:100038000A128A119228831203138C1D242825285A
:100048007E281412141B29282A282E28941F2D28AC
:100058002E2833281308F900141394131416831642
:100068000313941A382839285C2814193C283D2889
:100078005C280430F000F00B3F28000083120313C3
:100088001308F90047284828831203138C11141603
:1000980083160313141C512852284C288312031367
:1000A8001308F700A630F000F00B582800007B2852
:1000B800941A5F2860287B28141D632864287B28ED
:1000C800831203131308F900831603131410780816
:1000D8008312031393001416A630F000F00B722855
:1000E80000008316031314187A287B2875288312B6
:1000F80003138C110B1D8128822889280130FF00E9
:100108007F08F607833081000B117308FF0072081F
:100118008A00710E8300FE0E7E0E09000A128A11F3
:10012800B4200A128A1177080F39FA007A080A12DD
:100138008A11EF200A128A11F0307705F500103085
:100148007506031DA828A928AD28831203130714D0
:10015800972883120313071097280A128A110E286A
:100168008316031788018901831603130710831266
:1001780003130710831603130711831203130711C0
:100188007030831603138F040F1430300A128A114B
:10019800D5200A128A110A128A1105210A128A1117
:1001A8000800F40074088316031393003630831292
:1001B80003139400803083160313940001309100D8
:1001C800871507168B170B17831203138C118316C9
:1001D80003138C150800F40028307602031CF52858
:1001E800F628FB28F601831203130715042976085D
:1001F8007406031D0029012904298312031307111A
:10020800080083160313811281110108F839023896
:1002180081008B160B118B17833083120313810017
:040228000800023494
:04400E00D420FF3F7C
:00000001FF
