:060000000A128A110E280D
:10000800FE00030EF1000A08F2007F08F3000A124E
:100018008A1120280A128A1111280A128A11252108
:100028000A128A11FB00F601F701F801F901FA0139
:1000380083010A128A11BD28831203138C1D2528F7
:10004800262880281412141B2A282B282F28941FAE
:100058002E282F28352807141308FA001413941390
:10006800141683160313941A3A283B285E28141989
:100078003E283F285E280430F000F00B412800009D
:10008800831203131308FA0049284A28831203131A
:100098008C11141683160313141C532854284E2845
:1000A800831203131308F800A630F000F00B5A2847
:1000B80000007D28941A612862287D28141D65286F
:1000C80066287D28831203131308FA008316031386
:1000D800141079088312031393001416A630F00045
:1000E800F00B742800008316031314187C287D284D
:1000F8007728831203138C110B1D832884288B28DF
:100108000130FF007F08F707833081000B11730867
:10011800FF0072088A00710E8300FE0E7E0E090031
:100128008316031788018901831603138501831237
:1001380003138501831603138601831203138601B3
:1001480083160313071007118312031307100711EF
:100158007030831603138F040F1430300A128A117B
:10016800E5200A128A110A128A1115210A128A1127
:1001780008000A128A1194200A128A117808831238
:100188000313850078080F39FB00770886007B0881
:100198000A128A11FF200A128A11F0307805F50038
:1001A80010307506031DD928DA28DE2883120313B8
:1001B8000714C228831203130710C2280A128A11CF
:1001C8000E28F40074088316031393003630831244
:1001D80003139400803083160313940001309100B8
:1001E800871507168B170B17831203138C118316A9
:1001F80003138C150800F40028307702031C052926
:1002080006290B29F7018312031307151429770808
:100218007406031D102911291429831203130711C9
:10022800080083160313811281110108F839023876
:1002380081008B160B118B178330831203138100F7
:040248000800023474
:04400E00D420FF3F7C
:00000001FF
