:060000000A128A110E280D
:10000800FE00030EF8000A08F9007F08FA000A1239
:100018008A1122280A128A1111280A128A111F210C
:100028000A128A11FD00F001F101F201F301F40155
:10003800F501F60183010A128A1196288312031327
:100048008C1D2728282882281412141B2C282D28B8
:100058003128941F30283128372807141308F60050
:1000680014139413141683160313941A3C283D286A
:10007800602814194028412860280430F700F70B3D
:1000880043280000831203131308F6004B284C285A
:10009800831203138C11141683160313141C55288A
:1000A80056285028831203131308F400A630F700CB
:1000B800F70B5C2800007F28941A632864287F289F
:1000C800141D672868287F28831203131308F60075
:1000D8008316031314107508831203139300141660
:1000E800A630F700F70B76280000831603131418C0
:1000F8007E287F287928831203138C110B1D8528ED
:1001080086288D280130FF007F08F307833081009F
:100118000B117A08FF0079088A00780E8300FE0E1A
:100128007E0E09000A128A11BC200A128A1174086C
:1001380083120313850074080F39FD007D080A1225
:100148008A11F9200A128A11F0307405FC00103067
:100158007C06031DB028B128B528831203130714A1
:100168009B288312031307109B280A128A110E2852
:1001780083160317880189018316031385018312E7
:100188000313850183160313071007118312031342
:10019800071007117030831603138F040F143030C3
:1001A8000A128A11DF200A128A110A128A110F21F3
:1001B8000A128A110800FB007B08831603139300B8
:1001C800363083120313940080308316031394008F
:1001D80001309100871507168B170B17831203132D
:1001E8008C11831603138C150800FB00283073024A
:1001F800031CFF2800290529F3018312031307159F
:100208000E2973087B06031D0A290B290E29831260
:1002180003130711080083160313811281110108C3
:10022800F839023881008B160B118B178330831233
:080238000313810008000234E9
:04400E00D420FF3F7C
:00000001FF
