:060000000A128A110C280F
:10000800FE00030EF0000A08F1000A128A11C12E40
:100018000A128A110F28FA01FB0183132030840089
:1000280036300A128A11B9260A128A1183010A1275
:100038008A11C82D313083120313B6007B080A12C7
:100048008A117D210A128A112E3083120313B600F9
:100058007A080A128A117D210A128A112B3083121A
:100068000313B60026080A128A117D210A128A1182
:10007800273083120313B60024080A128A117D213F
:100088000A128A11343083120313B60023080A12A5
:100098008A117D210A128A11F601F60A01300A1224
:1000A8008A1194240A128A110F30F7008030F80060
:1000B8000A128A11E0240A128A113130F70000303E
:1000C800F8000A128A11E0240A128A112E300A1244
:1000D8008A1193250A128A112E30F7000030F80091
:1000E8000A128A11E0240A128A111230F7008030AD
:1000F800F8000A128A11E0240A128A11F601F60A97
:1001080002300A128A1194240A128A110C30F7005C
:100118008030F8000A128A11E0240A128A112B3062
:10012800F7000030F8000A128A11E0240A128A1136
:100138000530F7008030F8000A128A11E0240A120C
:100148008A110C30F60001300A128A1194240A121E
:100158008A110930F7008030F8000A128A11E02469
:100168000A128A112730F7000030F8000A128A11A3
:10017800E0240A128A110C30F60002300A128A11A1
:1001880094240A128A110130F7008030F8000A120C
:100198008A11E0240A128A113430F7000030F8007E
:1001A8000A128A11E0240A128A1108000A128A1116
:1001B800A7260A128A111030F2000030F3000A1242
:1001C8008A1194260A128A115430F2000030F30082
:1001D8000A128A1194260A128A1103308312031311
:1001E800B8000830B7007630B600B60BF928B70B60
:1001F800F928B80BF92800000A128A11B0260A1249
:100208008A111130F2000030F3000A128A11942684
:100218000A128A110030F200F3000A128A11F92535
:100228000A128A117208FB000A128A119E260A1203
:100238008A11063083120313B8001330B700AD30AB
:10024800B600B60B2529B70B2529B80B25290A12A4
:100258008A11A7260A128A111030F2000030F30022
:100268000A128A1194260A128A117430F200003098
:10027800F3000A128A1194260A128A110330831293
:100288000313B8000830B7007630B600B60B4A2919
:10029800B70B4A29B80B4A2900000A128A11B0265E
:1002A8000A128A111130F2000030F3000A128A1182
:1002B80094260A128A110030F200F3000A128A11F9
:1002C800F9250A128A117208FA000A128A119E2662
:1002D8000A128A11063083120313B8001330B700CC
:1002E800AD30B600B60B7629B70B7629B80B762950
:1002F800080083120313BA000A30F2000030F3003A
:100308003A08B700B8013708F4003808F5000A12AF
:100318008A117B220A128A11720883120313BB0006
:100328000A30F2000030F3003A08B700B801370885
:10033800F4003808F5000A128A113F230A128A11BC
:10034800720883120313BE000A30F2000030F30073
:100358003B08B700B8013708F4003808F5000A125E
:100368008A113F230A128A11720883120313BD00EF
:100378000A30F2000030F3003B08B700B801370834
:10038800F4003808F5000A128A117B220A128A1131
:10039800720883120313B9000A30F2000030F30028
:1003A8003908B700B8013708F4003808F5000A1210
:1003B8008A113F230A128A11720883120313BC00A0
:1003C8003D08031DE829E929F029360884003E087C
:1003D800303E83138000122A3C08031DF429F529B6
:1003E800012A360A84003E08303E8313800036080E
:1003F80084003D08303E8000122A3608023E840000
:100408003E08303E83138000360A84003D08303EA3
:100418008000360884003C08303E80000800003028
:1004280083120313BA000030B9000030B80000305E
:10043800B70075087404730472040319242A252A62
:10044800722ABB01BB0A352A0130B6000310F20D2F
:10045800F30DF40DF50DB60B2A2A0130FF007F08C5
:10046800BB07F51F382A392A282A0130B60003109D
:10047800B70DB80DB90DBA0DB60B3B2A7508790240
:10048800031D502A74087802031D502A7308770246
:10049800031D502A72087602031C532A542A632A21
:1004A8007208F6027308031C730FF7027408031C22
:1004B800740FF8027508031C750FF9023714013020
:1004C8000310F50CF40CF30CF20CFF3E031D642A28
:1004D8000130BB02031D712A722A392A3A08F50035
:1004E8003908F4003808F3003708F2000800F7016B
:1004F800F31F7F2A802A872AF209F309F20A0319CF
:10050800F30AF701F70AF51F8A2A8B2A942AF409B5
:10051800F509F40A0319F50A0130FF007F08F70608
:10052800F801F9017208730403199B2A9C2AD32A3B
:10053800F601F60AAA2A01300310F20DF30DFF3E68
:10054800031DA02A0130FF007F08F607F31FAD2A1C
:10055800AE2A9F2A01300310F80DF90DFF3E031D46
:10056800AF2A73087502031DBB2A72087402031CA4
:10057800BE2ABF2AC62A7208F4027308031CF503B0
:10058800F502781401300310F30CF20CFF3E031D42
:10059800C72A0130F602031DD22AD32AAE2A7708C9
:1005A8000319D72AD82ADD2AF809F909F80A0319FC
:1005B800F90A7908F3007808F200080000300A12F6
:1005C8008A114B260A128A113430F700F130F600EE
:1005D800F60BEC2AF70BEC2AF12A03300A128A11DF
:1005E8006D260A128A110D30F700FB30F600F60B63
:1005F800FB2AF70BFB2A002B03300A128A116D26FF
:100608000A128A111D30F7009130F600F60B0A2BFA
:10061800F70B0A2B03300A128A116D260A128A1167
:1006280002300A128A116D260A128A1102300A1241
:100638008A116D260A128A1108300A128A116D264B
:100648000A128A1100300A128A116D260A128A11BA
:100658000C300A128A116D260A128A1100300A1209
:100668008A116D260A128A1106300A128A116D261D
:100678000A128A110800F701F51F432B442B4B2B54
:10068800F409F509F40A0319F50AF701F70AF31F43
:100698004E2B4F2B542BF209F309F20A0319F30AD4
:1006A800720873040319592B5A2B892BF601F60A81
:1006B800682B01300310F20DF30DFF3E031D5E2B76
:1006C8000130FF007F08F607F31F6B2B6C2B5D2BA7
:1006D80073087502031D722B72087402031C752BB4
:1006E800762B7C2B7208F4027308031CF503F502C1
:1006F80001300310F30CF20CFF3E031D7D2B01307B
:10070800F602031D882B892B6C2B770803198D2B78
:100718008E2B932BF409F509F40A0319F50A7508C9
:10072800F3007408F20008000A128A11A7260A12B8
:100738008A112030F2000030F3000A128A11942640
:100748000A128A114930F2000030F3000A128A11A5
:1007580094260A128A11033083120313B800083052
:10076800B7007630B600B60BB72BB70BB72BB80B64
:10077800B72B00000A128A11B0260A128A112130FA
:10078800F2000030F3000A128A1194260A128A1124
:100798000030F200F3000A128A11F9250A128A11B0
:1007A800720883120313A3000A128A119E260A12E2
:1007B8008A11063083120313B8001330B700AD3026
:1007C800B600B60BE52BB70BE52BB80BE52B0800ED
:1007D8000A128A11A7260A128A111030F200003074
:1007E800F3000A128A1194260A128A114830F2007C
:1007F8000030F3000A128A1194260A128A11033073
:1008080083120313B8000830B7007630B600B60B71
:100818000B2CB70B0B2CB80B0B2C00000A128A11EF
:10082800B0260A128A111130F2000030F3000A12C1
:100838008A1194260A128A110030F200F3000A1273
:100848008A11F9250A128A11720883120313A60065
:100858000A128A119E260A128A110630831203137D
:10086800B8001330B700AD30B600B60B392CB70B53
:10087800392CB80B392C08000A128A11A7260A123B
:100888008A112030F2000030F3000A128A119426EF
:100898000A128A114730F2000030F3000A128A1156
:1008A80094260A128A11033083120313B800083001
:1008B800B7007630B600B60B5F2CB70B5F2CB80BC1
:1008C8005F2C00000A128A11B0260A128A11213000
:1008D800F2000030F3000A128A1194260A128A11D3
:1008E8000030F200F3000A128A11F9250A128A115F
:1008F800720883120313A4000A128A119E260A1290
:100908008A11063083120313B8001330B700AD30D4
:10091800B600B60B8D2CB70B8D2CB80B8D2C0800A0
:1009280083120313B6003603031D9B2C9C2CBB2C8F
:1009380076087F3EB9003908F70004300310F70C39
:10094800FF3E031DA22C7708B70039080F39B800FD
:1009580037080A128A116D260A128A1183120313A4
:1009680038080A128A116D260A128A11DF2C023001
:100978003606031DC02CC12CDF2C7608BF3EB900FB
:100988003908F70004300310F70CFF3E031DC72C8D
:100998007708B70039080F39B80037080A128A11E2
:1009A8006D260A128A118312031338080A128A1153
:1009B8006D260A128A11080083120313B901BA01BD
:1009C800092D39087707B7007808B6000318B60A62
:1009D800B91FEF2CB603831203133608B800380882
:1009E800FF00370884000A128A1127260A128A1182
:1009F8000A128A1193250A128A11013083120313ED
:100A0800B9070318BA0A0030BA0739087707B700D8
:100A18007808B6000318B60AB91F132DB603831257
:100A280003133608B8003808FF00370884000A1294
:100A38008A1127260A128A11003A031D242D252D12
:100A4800E52C08002830831203139400831603133F
:100A58009101831203133C08C0003D08C1003E0801
:100A6800C2003F08C30002300310C00DC10DC20D03
:100A7800C30DFF3E031D382D4308F5004208F4005E
:100A88004108F3004008F2000030F9007A30F8001D
:100A98001230F7000030F6000A128A1113220A12E7
:100AA8008A117208FF3E8316031393009401871579
:100AB8000716080083160317880189018316031394
:100AC800850183120313850183160313880183129A
:100AD800031388017030831603138F040F140A124E
:100AE8008A11E2220A128A111A3083120313C500EE
:100AF800F730C400C40B7E2DC50B7E2D832D00302E
:100B080083120313BF000130BE008630BD00A03041
:100B1800BC000A128A1126250A128A110800F6005A
:100B280076080F39F4007608F039F50083120313BC
:100B380008157508F30004300310F30CFF3E031D7D
:100B4800A02D73080A128A114B260A128A118312E1
:100B5800031388151A30F300F30BB02D000083122D
:100B68000313881174080A128A114B260A128A1173
:100B78008312031388151A30F300F30BC12D0000FC
:100B880083120313881108000A128A115E250A12BB
:100B98008A110A128A11DA200A128A110A128A1193
:100BA800EC230A128A110A128A1140240A128A11A5
:100BB8000A128A1198230A128A110A128A111E200F
:100BC8000A128A111A3083120313C8005E30C70054
:100BD8006D30C600C60BEE2DC70BEE2DC80BEE2DE3
:100BE800F52DCD2D0A128A110C280A128A11872692
:100BF8000A128A118316031391150A128A1187267D
:100C08000A128A11831203131308F400F5017408F9
:100C1800F6007508F7000A128A1187260A128A1147
:100C280072037304031D192E1A2E1E2E8316031326
:100C38009112212E83160313911611167708F300CB
:100C48007608F2000800FF1B312E83137F188317E4
:100C58000008840A0319FF0A080006308A000408FD
:100C6800840A82070034493452343A340034253433
:100C780052344834003447343A34003448343A342F
:100C8800003454343A340034273443340034F20006
:100C9800721C4F2E502E542E831203130816572EF3
:100CA800831203130812F21C5A2E5B2E5D2E88162F
:100CB8005E2E8812721D612E622E642E0817652E14
:100CC8000813F21D682E692E6B2E88176C2E881358
:100CD8000800F50083120313081175080A128A1117
:100CE8004B260A128A118312031388150B30F4005D
:100CF8006230F300F30B7E2EF40B7E2E000083127D
:100D08000313881108008316031314198C2E8D2ED3
:100D1800872E11081F39031D922E932E872E080047
:100D28000A128A1187260A128A117208831203137B
:100D3800930008000A128A1187260A128A1183165C
:100D48000313111508000A128A1187260A128A113C
:100D580083160313111408000A128A1187260A122F
:100D68008A11831603139114080064008001840A11
:100D78000406031900340406BA2E71088A00700E9E
:080D88008300FE0E7E0E09003F
:04400E00D420FF3F7C
:00000001FF
