:060000000A128A110C280F
:10000800FE00030EF0000A08F1000A128A15132FE9
:100018000A128A110F28FA01FB0183134A3084005F
:100028005D300A128A11F8270A128A1183010A120E
:100038008A11A92E0A30F2000030F300831203134C
:100048002108F5002008F4000A128A117A270A12FA
:100058008A11730883120313A9007208A8000A30D2
:10006800F2000030F3002108F5002008F4000A121D
:100078008A11BE270A128A11730883120313AF006C
:100088007208AE000A30F2000030F3002908F500CB
:100098002808F4000A128A117A270A128A117308AA
:1000A80083120313AB007208AA000A30F200003072
:1000B800F3002908F5002808F4000A128A11BE275F
:1000C8000A128A11730883120313AD007208AC0078
:1000D8000A30F2000030F3002B08F5002A08F4007B
:1000E8000A128A117A270A128A11730883120313D3
:1000F800A5007208A4000A30F2000030F3002B08B3
:10010800F5002A08F4000A128A11BE270A128A1179
:10011800730883120313A7007208A6000A30F200BE
:100128000030F3002508F5002408F4000A128A11AB
:10013800BE270A128A11831203132303031DA5285D
:10014800A628AD28220884002E08303E831380009C
:10015800D62802302306031DB228B328BF28220A56
:1001680084002E08303E83138000220884002C0867
:10017800303E8000D62803302306031DC428C52836
:10018800D6282208023E84002E08303E83138000C1
:10019800220A84002C08303E8000220884002608A9
:1001A800303E800008000A128A15F9260A128A11C0
:1001B8007B0883120313B000B1013008A000310896
:1001C800A1005630A2000330A3000A128A111E2093
:1001D8000A128A11831203135008B000B1013008C3
:1001E800A0003108A1005A30A2000230A3000A1270
:1001F8008A111E200A128A11831203134B08A100C8
:100208004A08A0005230A2000330A3000A128A1143
:100218001E200A128A11F601F60A01300A128A1102
:10022800CC250A128A111730F7008030F8000A121C
:100238008A11F0260A128A115630F7000030F800A9
:100248000A128A11F0260A128A111A30F700803031
:10025800F8000A128A11F0260A128A11F601F60A23
:1002680002300A128A11CC250A128A111430F700BA
:100278008030F8000A128A11F0260A128A115A30C0
:10028800F7000030F8000A128A11F0260A128A11C3
:100298000930F7008030F8000A128A11F0260A1295
:1002A8008A110930F60001300A128A11CC250A1287
:1002B8008A111130F7008030F8000A128A11F026EE
:1002C8000A128A115230F7000030F8000A128A1117
:1002D800F0260A128A110D30F7008030F8000A1251
:1002E8008A11F0260A128A110930F60002300A1221
:1002F8008A11CC250A128A110130F7008030F800E3
:100308000A128A11F0260A128A11080083120313AE
:10031800AF01A81F902991299E29A509A609A70917
:10032800A809A50A0319A60A0319A70A0319A80AFE
:10033800AF01AF0AAC1FA129A229B129A909AA09AD
:10034800AB09AC09A90A0319AA0A0319AB0A0319CC
:10035800AC0A0130FF007F08AF060030B300003060
:10036800B2000030B1000030B0002808270426048D
:1003780025040319C029C1290E2AAE01AE0AD129C4
:100388000130AD000310A50DA60DA70DA80DAD0BEE
:10039800C6290130FF007F08AE07A81FD429D52938
:1003A800C4290130AD000310B00DB10DB20DB30D6D
:1003B800AD0BD72928082C02031DEC2927082B028E
:1003C800031DEC2926082A02031DEC292508290209
:1003D800031CEF29F029FF292508A9022608031C78
:1003E800260FAA022708031C270FAB022808031CA4
:1003F800280FAC02301401300310A80CA70CA60C6F
:10040800A50CFF3E031D002A0130AE02031D0D2A74
:100418000E2AD5292F080319122A132A1E2AB009D1
:10042800B109B209B309B00A0319B10A0319B20A2A
:100438000319B30A3308A8003208A7003108A60038
:100448003008A5000800831203133708A8003608EF
:10045800A7003508A6003408A5000030AC007A30A3
:10046800AB001230AA000030A9000A128A118A21B2
:100478000A128A11831203132808C0002708BF0034
:100488002608BE002508BD00FF30B800FF30B900BF
:10049800FF30BA00FF30BB000030A8000030A700D2
:1004A8000030A6004030A5004008AC003F08AB0073
:1004B8003E08AA003D08A9000A128A118A210A12D8
:1004C8008A11831203132508B80726080318260F74
:1004D8006E2A6F2AB90727080318270F742A752A66
:1004E800BA0728080318280ABB073B08C4003A08BB
:1004F800C3003908C2003808C10041088316031335
:100508009900831203134108B8004208B900430850
:10051800BA004408BB000830BC003B0DBB0CBA0C49
:10052800B90CB80CBC0B912A3808831603139A002F
:1005380018128312031398171816831603138C16B0
:100548000B178B17831203138C12080083120313E3
:100558003708A8003608A7003508A6003408A50003
:100568000030AC007A30AB001230AA000030A9008D
:100578000A128A118A210A128A118312031328087F
:10058800C0002708BF002608BE002508BD00FF30B0
:10059800B800FF30B900FF30BA00FF30BB000030B0
:1005A800A8000030A7000030A6004030A500400891
:1005B800AC003F08AB003E08AA003D08A9000A129B
:1005C8008A118A210A128A11831203132508B8078F
:1005D80026080318260FF12AF22AB9072708031854
:1005E800270FF72AF82ABA0728080318280ABB078A
:1005F8003B08C4003A08C3003908C2003808C100E3
:100608004108831603139900831203134108B800A5
:100618004208B9004308BA004408BB000830BC00CF
:100628003B0DBB0CBA0CB90CB80CBC0B142B38081E
:10063800831603139A00181283120313981783164C
:10064800031398160C12831203130C1208000030BF
:1006580083120313A4000030A3000030A20000306E
:10066800A100750874047304720403193C2B3D2B14
:100678008A2BA501A50A4D2B0130A0000310F20D0D
:10068800F30DF40DF50DA00B422B0130FF007F0890
:10069800A507F51F502B512B402B0130A00003104C
:1006A800A10DA20DA30DA40DA00B532B7508790263
:1006B800031D682B74087802031D682B73087702E2
:1006C800031D682B72087602031C6B2B6C2B7B2B8B
:1006D8007208F6027308031C730FF7027408031CF0
:1006E800740FF8027508031C750FF9022114013004
:1006F8000310F50CF40CF30CF20CFF3E031D7C2BDD
:100708000130A502031D892B8A2B512B2408F500E3
:100718002308F4002208F3002108F20008000A1256
:100728008A15D2260A128A112030F2000030F3000E
:100738000A128A15E4260A128A114730F20000309C
:10074800F3000A128A15E4260A128A113430831239
:100758000313C500F130C400C40BB02BC50BB02B7C
:100768000A128A15C9260A128A112130F2000030AD
:10077800F3000A128A15E4260A128A110030F200E0
:10078800F3000A128A1565270A128A117208831261
:100798000313CF000A128A15DB260A128A11343095
:1007A80083120313C500F130C400C40BD92BC50B49
:1007B800D92B83120313B401FF30B5006430B6009F
:1007C8000030BA000030B9000330B8002030B7005C
:1007D8004F080A128A11C1240A128A1183120313BC
:1007E8003508CB003408CA00080033307B02031CEC
:1007F800FE2BFF2B0C2C0130831203134B0291307C
:1008080003194A02031C092C0A2C0C2C4D16122C15
:100818000F30FF007F0883120313CD05F030FF006F
:100828007F08CD05202CCD14332C0330FF007F0822
:10083800CD04332C4D15332C7A08F400F5017508D6
:10084800003A0319282C172C7408303A0319172C6E
:10085800013A0319192C033A03191E2C172C0A12F2
:100868008A15D2260A128A113030F2000030F300BD
:100878000A128A15E4260A128A11831203134D08F4
:10088800F400F5017408F2007508F3000A128A15DD
:10089800E4260A128A110A128A15DB260A128A111C
:1008A8003430F500F130F400F40B582CF50B582CCB
:1008B8005D2C08000A128A15D2260A128A112030E5
:1008C800F2000030F3000A128A15E4260A128A118F
:1008D8005430F2000030F3000A128A15E4260A1296
:1008E8008A11343083120313C500F130C400C40BDD
:1008F8007B2CC50B7B2C0A128A15C9260A128A1171
:100908002130F2000030F3000A128A15E4260A1298
:100918008A110030F200F3000A128A1565270A12BC
:100928008A11720883120313D1000A128A15DB2672
:100938000A128A11343083120313C500F130C4003F
:10094800C40BA42CC50BA42C83120313B4014D3083
:10095800B500B6010030BA000030B9000030B80068
:100968009630B70051080A128A11C1240A128A1156
:10097800831203133408FB00080083120313C30017
:1009880034083502A500A601031CA603A701A61B6F
:10099800A7032708A80034084302F200F301031C48
:1009A800F303F401F31BF4037408F5003608BB00E5
:1009B800BC01BD01BE013708BF003808C0003908B6
:1009C800C1003A08C2003B08BF023C08031C3C0FA8
:1009D800EE2CEF2CC0023D08031C3D0FF42CF52C27
:1009E800C1023E08031C3E0FFA2CFB2CC20242082F
:1009F800F9004108F8004008F7003F08F6000A121D
:100A08008A1161260A128A11750883120313AC0031
:100A18007408AB007308AA007208A9000A128A11A8
:100A28008A210A128A118312031336082507B40093
:100A38000030031801302607B500080000300A12FC
:100A48008A1543270A128A113430F700F130F6006C
:100A5800F60B2C2DF70B2C2D312D03300A128A158D
:100A680029270A128A110D30F700FB30F600F60B21
:100A78003B2DF70B3B2D402D03300A128A152927F1
:100A88000A128A111D30F7009130F600F60B4A2D34
:100A9800F70B4A2D03300A128A1529270A128A11E0
:100AA80002300A128A1529270A128A1102300A12FC
:100AB8008A1529270A128A1108300A128A15292745
:100AC8000A128A1100300A128A1529270A128A1175
:100AD8000C300A128A1529270A128A1100300A12C4
:100AE8008A1529270A128A1106300A128A15292717
:100AF8000A128A11080083160317880189018316D0
:100B080003138801831203138801703083160313BB
:100B18008F040F140A128A1122250A128A111A3018
:100B280083120313C600F730C500C50B992DC60BF9
:100B3800992D9E2D003083120313A9000130A800BF
:100B48008630A700A030A6000A128A15C8270A1204
:100B58008A11003083120313B7000030B600253025
:100B6800B5008030B4000A128A1127220A128A11AD
:100B7800003083120313B7000030B6002530B500EB
:100B88008030B4000A128A11AA220A128A110800B7
:100B980083120313A0002003031DD32DD42DF32D9E
:100BA80076087F3EA3002308F70004300310F70CF3
:100BB800FF3E031DDA2D7708A10023080F39A20094
:100BC80021080A128A1529270A128A118312031387
:100BD80022080A128A1529270A128A11172E0230AA
:100BE8002006031DF82DF92D172E7608BF3EA30009
:100BF8002308F70004300310F70CFF3E031DFF2DF8
:100C08007708A10023080F39A20021080A128A15C3
:100C180029270A128A118312031322080A128A1535
:100C280029270A128A1108000A128A15D2260A12DE
:100C38008A111030F2000030F3000A128A15E426F7
:100C48000A128A114830F2000030F3000A128A159D
:100C5800E4260A128A113430F900F130F800F80B52
:100C6800332EF90B332E382E0A128A15C9260A128A
:100C78008A111130F2000030F3000A128A15E426B6
:100C88000A128A110030F200F3000A128A15652749
:100C98000A128A11720883120313D0000A128A15E5
:100CA800DB260A128A113430F900F130F800F80B0B
:100CB8005B2EF90B5B2E602E0800003083120313A5
:100CC800A4000030A3000030A2000030A100721C74
:100CD8006E2E6F2E862E7608A1077708031103184B
:100CE800013E0319782EA207780803110318013E64
:100CF80003197F2EA307790803110318013E03196E
:100D0800862EA4070130A0000310F60DF70DF80D8C
:100D1800F90DA00B882E01300310F50CF40CF30C20
:100D2800F20CFF3E031D902E7508740473047204C0
:100D3800031D9F2EA02E6B2E2408F5002308F40017
:100D48002208F3002108F20008000A128A117F2500
:100D58000A128A111930831203134E02031CB52E8E
:100D6800B62EBE2E0A128A1118260A128A1183126A
:100D78000313CE010A128A115E240A128A110A127A
:100D88008A1193230A128A110A128A11F9230A1264
:100D98008A110A128A11D7200A128A110A128A1194
:100DA80036270A128A110130FF007F0883120313C5
:100DB800CE07023083120313C9000430C800B930CB
:100DC800C700C70BE52EC80BE52EC90BE52EEC2E88
:100DD800AE2E0A128A110C2883120313A301A40150
:100DE800192F23087707A1007808A0000318A00A84
:100DF800A31FFF2EA003831203132008A2002208BA
:100E0800FF00210884000A128A1500200A128A119C
:100E18000A128A1593270A128A11013083120313C2
:100E2800A3070318A40A0030A40723087707A10022
:100E38007808A0000318A00AA31F232FA003831279
:100E480003132008A2002208FF00210884000A12C8
:100E58008A1500200A128A11003A031D342F352FF3
:100E6800F52E08000A300A128A15EE260A128A118F
:100E78007B080A128A15EE260A128A1120300A12F5
:100E88008A15EE260A128A118312031350080A12D1
:100E98008A15EE260A128A1120300A128A15EE26C1
:100EA8000A128A11831203134B080A128A15EE26B6
:100EB8000A128A11831203134A080A128A15EE26A7
:100EC8000A128A1120300A128A15EE260A128A118D
:100ED8000630F5001330F400AD30F300F30B722F39
:100EE800F40B722FF50B722F792F0800F601F7011A
:100EF800720873040319812F822FB92FF801F80A99
:100F0800902F01300310F20DF30DFF3E031D862FC5
:100F18000130FF007F08F807F31F932F942F852FC8
:100F280001300310F60DF70DFF3E031D952F7308D2
:100F38007502031DA12F72087402031CA42FA52F8C
:100F4800AC2F7208F4027308031CF503F50276143B
:100F580001300310F30CF20CFF3E031DAD2F0130DE
:100F6800F802031DB82FB92F942F7708F3007608DD
:100F7800F2000800720873040319C32FC42FF32F5B
:100F8800F601F60AD22F01300310F20DF30DFF3EE1
:100F9800031DC82F0130FF007F08F607F31FD52F68
:100FA800D62FC72F73087502031DDC2F7208740231
:100FB800031CDF2FE02FE62F7208F4027308031CCE
:100FC800F503F50201300310F30CF20CFF3E031D8C
:100FD800E72F0130F602031DF22FF32FD62F7508E5
:100FE800F3007408F200080064008001840A040613
:100FF800031900340406F92FFF1B0A2883137F18EE
:1010080083170008840A0319FF0A080008308A00B9
:101018000408840A82070034503455344534523465
:10102800543441343A34003425345234483400348A
:10103800703470346D34003447343A3400344834F2
:101048003A34003454343A3400345E34433400348F
:101D8A00831203131A0808000A128A1506270A1270
:101D9A008A1583160313911408000A128A15062756
:101DAA000A128A1583160313111408000A128A15D7
:101DBA0006270A128A1583160313111508000A1238
:101DCA008A1506270A128A157208831203139300CA
:101DDA000800F200831203130C1EF42EF52EEF2EC8
:101DEA000C1272089900080000300A128A15292775
:101DFA000A128A1501300A128A1529270A128A1527
:101E0A0008008316031314190B2F0C2F062F110821
:101E1A001F39031D112F122F062F080083120313D7
:101E2A008C1E182F192F222F0A128A15C5260A125C
:101E3A008A15FA00831203138C1271088A00700E35
:101E4A008300FE0E7E0E0900F500831203130811AB
:101E5A0075080A128A1543270A128A158312031370
:101E6A0088150B30F4006230F300F30B3A2FF40BB1
:101E7A003A2F00008312031388110800F200721C23
:101E8A00472F482F4C2F8312031308164F2F831204
:101E9A0003130812F21C522F532F552F8816562F50
:101EAA008812721D592F5A2F5C2F08175D2F08139D
:101EBA00F21D602F612F632F8817642F8813080083
:101ECA000A128A1506270A128A1583160313911510
:101EDA000A128A1506270A128A158312031313088F
:101EEA00F400F5017408F6007508F7000A128A155D
:101EFA0006270A128A1572037304031D852F862F7B
:101F0A008A2F8316031391128D2F831603139116AA
:101F1A0011167708F3007608F2000800F600760832
:101F2A000F39F4007608F039F50083120313081507
:101F3A007508F30004300310F30CFF3E031DA02FB5
:101F4A0073080A128A1543270A128A158312031381
:101F5A0088151A30F300F30BB02F00008312031315
:101F6A00881174080A128A1543270A128A158312DD
:101F7A00031388151A30F300F30BC12F00008312E4
:101F8A000313881108002830831203139400831660
:101F9A0003139101831203132608AA002708AB0032
:101FAA002808AC002908AD0002300310AA0DAB0DB9
:101FBA00AC0DAD0DFF3E031DDA2F2D08F5002C08E0
:101FCA00F4002B08F3002A08F2000030F9007A30F6
:101FDA00F8001230F7000030F6000A128A112B239B
:101FEA000A128A157208FF3E83160313930094019E
:061FFA0087150716080020
:04400E00D420FF3F7C
:00000001FF
