:060000000A128A110C280F
:10000800FE00030EF0000A08F1000A168A113C2EC1
:100018000A128A110F28831603130A128A11FC2761
:100028000A128A11E0008313C6308400E0300A16F1
:100038008A1143260A128A1183120313EF01FA0167
:10004800FB0183010A128A157F28831203134508CE
:100058008039CF004508CA004A07D500C41F352893
:10006800362837285514550803193B283C284B28AF
:10007800550A031D4028412849280030C500003092
:10008800C4000030C3000030C200C4175328003039
:10009800C5000030C4000030C3000030C200490869
:1000A8008039FF007F08CF064908CA004A07D000F8
:1000B800C81F5F2860286128501450080319652854
:1000C80066287528500A031D6A286B287328003093
:1000D800C9000030C8000030C7000030C600C8178B
:1000E8007D280030C9000030C8000030C70000304B
:1000F800C600500803198128822887285508031D3F
:100108008628872890280030C5000030C4000030B9
:10011800C3000030C2006D2B4208F20048080A12E2
:100128008A11D3270A128A11730883120313DB007A
:100138007208DA005A08CA00CB01CC01CD014D087B
:10014800D4004C08D3004B08D2004A08D1005B0801
:10015800CA00CB01CC01CD014D08D9004C08D8000C
:100168004B08D7004A08D6004308F20047080A128D
:100178008A11D3270A128A11730883120313DB002A
:100188007208DA005A08CA00CB01CC01CD014A082E
:10019800D1074B0803110318013E0319D428D207CD
:1001A8004C0803110318013E0319DB28D3074D0837
:1001B80003110318013E0319E228D4075B08CA009B
:1001C800CB01CC01CD014A08D6074B08031103180F
:1001D800013E0319F028D7074C0803110318013E04
:1001E8000319F728D8074D0803110318013E03190E
:1001F800FE28D9074408F20046080A128A11D327B4
:100208000A128A11730883120313DB007208DA00DA
:100218005A08CA00CB01CC01CD014A08D1074B08C6
:1002280003110318013E03191A29D2074C080311B8
:100238000318013E03192129D3074D080311031898
:10024800013E03192829D4075B08CA00CB01CC0159
:10025800CD014A08D6074B0803110318013E0319BC
:100268003629D7074C0803110318013E03193D2905
:10027800D8074D0803110318013E03194429D9076B
:100288000830CA000310D10DD20DD30DD40DCA0BFE
:1002980046294308F20046080A128A11D3270A128F
:1002A8008A11730883120313DB007208DA005A08F4
:1002B800CA005B08CB00CC01CD014A08D1074B0826
:1002C80003110318013E03196A29D2074C080311C8
:1002D8000318013E03197129D3074D0803110318A8
:1002E800013E03197829D4074208F20047080A1288
:1002F8008A11D3270A128A11730883120313DB00A9
:100308007208DA005A08CA005B08CB00CC01CD019C
:100318004A08D1074B0803110318013E0319952910
:10032800D2074C0803110318013E03199C29D3076F
:100338004D0803110318013E0319A329D4070830F7
:10034800CA000310D10DD20DD30DD40DCA0BA529A7
:100358004208F20046080A128A11D3270A128A11A3
:10036800730883120313DB007208DA005A08CA0004
:100378005B08CB00CC01CD014A08D1074B0803111B
:100388000318013E0319C929D2074C0803110318A1
:10039800013E0319D029D3074D0803110318013E64
:1003A8000319D729D4074308F20048080A128A110A
:1003B800D3270A128A11730883120313DB00720809
:1003C800DA005A08CA005B08CB00CC01CD014A0804
:1003D800D6074B0803110318013E0319F429D70760
:1003E8004C0803110318013E0319FB29D8074D08CF
:1003F80003110318013E0319022AD9074408F20021
:1004080047080A128A11D3270A128A11730883121D
:100418000313DB007208DA005A08CA005B08CB0035
:10042800CC01CD014A08D6074B0803110318013E39
:1004380003191F2AD7074C0803110318013E031993
:10044800262AD8074D0803110318013E03192D2A3F
:10045800D9074408F20048080A128A11D3270A1259
:100468008A11730883120313DB007208DA005A0832
:10047800CA005B08CB00CC01CD0108300310CA0DBF
:10048800CB0DCC0DCD0DFF3E031D422A4A08D607E1
:100498004B0803110318013E0319532AD7074C08C8
:1004A80003110318013E03195A2AD8074D080311EE
:1004B8000318013E0319612AD9075108CA005208D6
:1004C800CB005308CC005408CD0018300310CD0CD5
:1004D800CC0CCB0CCA0CFF3E031D6A2A4A08D6076F
:1004E8004B0803110318013E03197B2AD7074C0850
:1004F80003110318013E0319822AD8074D08031176
:100508000318013E0319892AD9070830CA000310C5
:10051800D10DD20DD30DD40DCA0B8B2A5508500717
:10052800CA00CB01CB0D4A08823EDA004B080318FB
:10053800013EFF3EDB00BD2A0130CA000310D60D84
:10054800D70DD80DD90DCA0BA22AD41FAC2AAD2AB3
:10055800AE2A56140130CA000310D10DD20DD30DA6
:10056800D40DCA0BB02AFF30DA070318DB0AFF30B4
:10057800DB07D81FC02AC12AA02AD001D41FC52A48
:10058800C62AE22AFF305105CA00FF305205CB00C7
:10059800FF305305CC007F305405CD004D084C0486
:1005A8004B044A040319D92ADA2ADD2AD001D00AD1
:1005B800E22A561CE02AE12AE22ADA2A500803191C
:1005C800E62AE72A182B0130D60700300318013035
:1005D800D707003003180130D8070030031801305E
:1005E800D907591CF82AF92A182B5608CA0057089F
:1005F800CB005808CC005908CD000130CE004D0D75
:10060800CD0CCC0CCB0CCA0CCE0B032B4D08D9004F
:100618004C08D8004B08D7004A08D6000130DA0742
:100628000318DB0A0030DB075B08803AFF008030E4
:100638007F02031D212BFF305A02031C242B252B7C
:10064800302B7F3083120313D9008030D80000305C
:10065800D7000030D600612B831203135B08803A61
:10066800FF0080307F02031D3B2B01305A02031824
:100678003E2B3F2B4B2B003083120313D900003045
:10068800D8000030D7000030D600CF01612B83128C
:1006980003135A08D500FF30D605FF30D7057F3041
:1006A800D8050030D905551C5A2B5B2B5C2BD81765
:1006B8005508CA0003104A0CD9004F08FF007F08EC
:1006C800D9045908C5005808C4005708C30056087B
:1006D800C2000800831203136308803983160313CA
:1006E800A400831203136308E4006407831603134A
:1006F800AB0083120313E21F822B832B862B8316F6
:1007080003132B14831603132B0803198C2B8D2B1F
:10071800A02B2B0A031D912B922B9C2B00308312AC
:100728000313E3000030E2000030E1000030E00095
:100738008312E217E301AA2B003083120313E300AC
:100748000030E2000030E1000030E0005F0880394E
:10075800FF007F0883160313A406831203135F08A0
:10076800E400640783160313AC0083120313DE1F2F
:10077800BE2BBF2BC22B831603132C148316031313
:100788002C080319C82BC92BDC2B2C0A031DCD2BD5
:10079800CE2BD82B003083120313DF000030DE008D
:1007A8000030DD000030DC008312DE17DF01E62BAD
:1007B800003083120313DF000030DE000030DD005C
:1007C8000030DC005F085E045D045C04031DED2B53
:1007D800EE2B0B2C0030E3000030E2000030E1008B
:1007E8000030E0008030E2047F30E3048316031316
:1007F8002408FF007F0883120313E3046308DF0063
:100808006208DE006108DD006008DC00F32D831655
:1008180003132B08031D112C122C1D2C00308312DE
:100828000313DF000030DE000030DD000030DC00A4
:10083800F32D2B0883120313E400E5016508E70094
:10084800831603132C08831203136402E600031CA7
:10085800E70366087F3E83160313A500831203137C
:1008680067080318013E003E83160313A60083128F
:100878000313630883160313A30083120313620888
:1008880083160313A200831203136108831603134C
:10089800A10083120313600883160313A00000301D
:1008A80083120313E3000030E2000030E10000305F
:1008B800E000003083160313AA000030A9000030BE
:1008C800A8000030A700AC01EB2C2C0803196D2CF4
:1008D8006E2C9D2C013083120313E4000310831641
:1008E8000313A00DA10DA20DA30D83120313E40B96
:1008F800722C0130E4000310E00DE10DE20DE30D70
:10090800E40B7F2C83160313AA1F8B2C8C2C8F2CA3
:1009180083120313601401308312E400031083165A
:100928000313A70DA80DA90DAA0D83120313E40B39
:10093800922C83125F08831603132302031DBA2C1B
:10094800831203135E08831603132202031DBA2CB5
:10095800831203135D08831603132102031DBA2CA7
:10096800831203135C08831603132002031CBD2C97
:10097800BE2CE72C2A17831203135C088316031373
:10098800A002831203135D08031C5D0FCC2CCF2C2F
:1009980083160313A102831203135E08031C5E0F60
:1009A800D62CD92C83160313A202831203135F08D3
:1009B800031C5F0FE02CE32C83160313A30283129E
:1009C8000313831603130130FF007F08AC071A30A6
:1009D8002C02031CF02CF12C692C2308220421047E
:1009E80020040319F82CF92C232D2714232D01306A
:1009F800E4000310E00DE10DE20DE30DE40BFD2C26
:100A080083160313AA1F092D0A2D0D2D8312031314
:100A1800601401308312E400031083160313A70D3A
:100A2800A80DA90DAA0D83120313E40B102DFF3096
:100A380083160313A5070318A60AFF30A607831217
:100A48000313E21F282D292DFB2C83160313AC0159
:100A5800AA1F2F2D302D5C2DFF302705831203137D
:100A6800E400FF3083160313280583120313E500FF
:100A7800FF3083160313290583120313E6007F3022
:100A8800831603132A0583120313E7006708660415
:100A9800650464040319512D522D572D8316031331
:100AA800AC01AC0A5C2D601C5A2D5B2D5C2D522DBF
:100AB800831603132C080319622D632D982D01301A
:100AC80083120313E007003003180130E1070030F8
:100AD80003180130E207003003180130E307631CF4
:100AE800762D772D982D6008E4006108E5006208EE
:100AF800E6006308E7000130E800670DE70CE60C44
:100B0800E50CE40CE80B812D6708E3006608E200B9
:100B18006508E1006408E000013083160313A507A7
:100B28000318A60A0030A607831603132608803A7E
:100B3800FF0080307F02031DA32DFF302502031C18
:100B4800A62DA72DB72DFF3083160313A50000305F
:100B5800A600003083120313E3000030E2000030E7
:100B6800E1000030E000831603132608803AFF00F6
:100B780080307F02031DC22D013025020318C52DC8
:100B8800C62DD72D83160313A501A60100308312A5
:100B98000313E3000030E2000030E1000030E00021
:100BA80083160313A401831603132508AB002B1C1B
:100BB800DE2DDF2DE32D83120313E217E92D7F309D
:100BC800FF007F0883120313E205831603132B0823
:100BD80083120313E4000310640CE300FA2B0800EB
:100BE80083160313C00031084002F200F301031C0E
:100BF800F303F401F31BF4037408F50001300A123F
:100C08008A151B240A128A11750883120313C90056
:100C18007408C8007308C7007208C6008316031357
:100C2800370883120313C10083160313360883128F
:100C38000313C00083160313350883120313BF0080
:100C480083160313340883120313BE008316031399
:100C58003308B800B901BA01BB013B08F5003A08EE
:100C6800F4003908F3003808F20001300A128A1536
:100C78001B240A128A11750883120313BD00740815
:100C8800BC007308BB007208BA000A168A11C6268F
:100C98000A128A11831203133D08C5003C08C400D8
:100CA8003B08C3003A08C2000A128A1129200A1216
:100CB8008A11831203134508E3004408E20043083D
:100CC800E1004208E0008316031331083202F20003
:100CD800F301031CF303F401F31BF4037408F50098
:100CE80001300A128A151B240A128A117508831208
:100CF8000313DF007408DE007308DD007208DC00EF
:100D08000A128A116E230A128A11831203135F08CA
:100D180083160313BF00831203135E08831603139D
:100D2800BE00831203135D0883160313BD008312EC
:100D380003135C0883160313BC003F0883120313D4
:100D4800AD00831603133E0883120313AC00831609
:100D580003133D0883120313AB00831603133C08E7
:100D680083120313AA00831603133308B800B901CA
:100D7800BA01BB013B08F5003A08F4003908F30052
:100D88003808F20001300A128A151B240A128A1147
:100D9800750883120313A9007408A8007308A70034
:100DA8007208A6000A128A15A8250A128A11831247
:100DB80003132908EC002808EB002708EA00260896
:100DC800E9000A128A158B230A128A118312031367
:100DD8006A0883160313B200831203136908831683
:100DE8000313B10008000A30F2000030F300831248
:100DF80003132108F5002008F4000A168A11BC27FD
:100E08000A128A11730883120313A9007208A80032
:100E18000A30F2000030F3002108F5002008F40041
:100E28000A168A1182270A128A1173088312031379
:100E3800B1007208B0000A30F2000030F30029084F
:100E4800F5002808F4000A168A11BC270A128A112C
:100E5800730883120313AB007208AA000A30F20069
:100E68000030F3002908F5002808F4000A168A1152
:100E780082270A128A11730883120313AF007208BB
:100E8800AE000A30F2000030F3002B08F5002A0803
:100E9800F4000A168A11BC270A128A1173088312F1
:100EA8000313A5007208A4000A30F2000030F30012
:100EB8002B08F5002A08F4000A168A1182270A125C
:100EC8008A11730883120313AD007208AC000A304C
:100ED800F2000030F3002508F5002408F4000A1693
:100EE8008A1182270A128A11730883120313A70032
:100EF8007208A6002303031D822F832F8A2F22083E
:100F080084003008303E83138000D22F023023063D
:100F1800031D8F2F902F9C2F220A84003008303E0B
:100F280083138000220884002E08303E8000D22FD0
:100F380003302306031DA12FA22FB42F2208023E3F
:100F480084003008303E83138000220A84002E0873
:100F5800303E8000220884002C08303E8000D22FCA
:100F680004302306031DB92FBA2FD22F2208033EBF
:100F780084003008303E831380002208023E84003B
:100F88002E08303E8000220A84002C08303E800063
:100F9800220884002608303E8000D22F08008312E1
:100FA8000313A400A001A1017208F400F50174085C
:100FB800A2007508A300241CE22FE32FE92F2208C2
:100FC800A0070318A10A2308A10701300310A20DE6
:100FD800A30DFF3E031DEA2F0310A40C2408031DD4
:100FE800F62FF72FDF2F2108F3002008F200080062
:020FF800B4340F
:101002002830831203139400831603139101831271
:1010120003132608AA002708AB002808AC002908F9
:10102200AD0002300310AA0DAB0DAC0DAD0DFF3EAD
:10103200031D13282D08F5002C08F4002B08F300DB
:101042002A08F2000030F9007A30F8001230F70076
:101052000030F6000A128A1523230A128A15720832
:10106200FF3E8316031393009401871507160800A9
:1010720083120313A301A401622823087707A100A6
:101082007808A0000318A00AA31F4828A00383120F
:1010920003132008A2002208FF00210884000A1678
:1010A2008A1100200A128A150A168A1118270A12B2
:1010B2008A15013083120313A3070318A40A003010
:1010C200A40723087707A1007808A0000318A00A44
:1010D200A31F6C28A003831203132008A200220876
:1010E200FF00210884000A168A1100200A128A15BC
:1010F200003A031D7D287E283E2808000A168A1120
:101102004D270A128A150A30831603134D02031C57
:101112008B288C2894280A128A150C210A128A1507
:1011220083160313CD010A128A15C0220A128A15E8
:101132000A128A155D220A128A150A128A15C52018
:101142000A128A150A128A15FE210A128A150A1231
:101152008A15D5240A128A15033083160313C50093
:101162008A30C4005530C300C30BB528C40BB52860
:10117200C50BB5280130FF007F0883160313CD0786
:1011820084280A128A110C280A168A1154260A1275
:101192008A152030F2000030F3000A168A11662602
:1011A2000A128A154930F2000030F3000A168A1139
:1011B20066260A128A153430F900F130F800F80B6D
:1011C200E028F90BE028E5280A168A114B260A12B4
:1011D2008A152130F2000030F3000A168A116626C1
:1011E2000A128A150030F200F3000A168A11EA2662
:1011F2000A128A157208FB000A168A115D260A1263
:101202008A153430F900F130F800F80B0629F90B91
:1012120006290B2908000A168A1154260A128A1571
:101222001030F2000030F3000A168A1166260A1204
:101232008A154830F2000030F3000A168A11662639
:101242000A128A153430F900F130F800F80B272918
:10125200F90B27292C290A168A114B260A128A15FC
:101262001130F2000030F3000A168A1166260A12C3
:101272008A150030F200F3000A168A11EA260A12D1
:101282008A15720883120313EF000A168A115D266B
:101292000A128A153430F900F130F800F80B4F29A0
:1012A200F90B4F295429080083120313A0002003CD
:1012B200031D5C295D297C2976087F3EA300230853
:1012C200F70004300310F70CFF3E031D6329770873
:1012D200A10023080F39A20021080A168A118A26C2
:1012E2000A128A158312031322080A168A118A2601
:1012F2000A128A15A02902302006031D812982299B
:10130200A0297608BF3EA3002308F700043003108B
:10131200F70CFF3E031D88297708A10023080F3927
:10132200A20021080A168A118A260A128A15831235
:10133200031322080A168A118A260A128A1508003D
:1013420000300A168A11A4260A128A153430F700D0
:10135200F130F600F60BAB29F70BAB29B0290330BD
:101362000A168A118A260A128A150D30F700FB30F6
:10137200F600F60BBA29F70BBA29BF2903300A1671
:101382008A118A260A128A151D30F7009130F6005A
:10139200F60BC929F70BC92903300A168A118A26C6
:1013A2000A128A1502300A168A118A260A128A1528
:1013B20002300A168A118A260A128A1508300A167B
:1013C2008A118A260A128A1500300A168A118A267A
:1013D2000A128A150C300A168A118A260A128A15EE
:1013E20000300A168A118A260A128A1506300A164F
:1013F2008A118A260A128A150800513083160313AD
:101402005202031C052A062A0E2A65304F02031CCB
:101412000B2A0C2A0E2A4C16222A0F30FF007F08B4
:10142200CC05222AF230FF007F08CC05322AF330A5
:10143200FF007F08CC05322AF430FF007F08CC057C
:10144200322A0030003A0319272A132AB430003A0C
:101452000319132A5A3A0319182AEE3A03191D2AB4
:10146200132A0A168A1154260A128A153030F200FB
:101472000030F3000A168A1166260A128A158316AC
:1014820003134C08F400F5017408F2007508F30028
:101492000A168A1166260A128A150A168A115D260A
:1014A2000A128A153430F500F130F400F40B572A91
:1014B200F50B572A5C2A08000A168A1154260A12CA
:1014C2008A152030F2000030F3000A168A116626CF
:1014D2000A128A154730F2000030F3000A168A1108
:1014E20066260A128A15343083160313C200F130BD
:1014F200C100C10B7A2AC20B7A2A0A168A114B261C
:101502000A128A152130F2000030F3000A168A11FD
:1015120066260A128A150030F200F3000A168A11B2
:10152200EA260A128A15720883160313CF000A16D6
:101532008A115D260A128A15343083160313C200FB
:10154200F130C100C10BA32AC20BA32A83160313D5
:10155200B101FF30B200B3014430B7004830B600E9
:101562000030B5000030B4004F080A128A11F42589
:101572000A128A15831603133108CE0008000A16D0
:101582008A1154260A128A152030F2000030F30024
:101592000A168A1166260A128A155430F2000030A1
:1015A200F3000A168A1166260A128A153430831647
:1015B2000313C200F130C100C10BDD2AC20BDD2AC8
:1015C2000A168A114B260A128A152130F2000030BF
:1015D200F3000A168A1166260A128A150030F200F2
:1015E200F3000A168A11EA260A128A15720883166D
:1015F2000313D2000A168A115D260A128A153430A4
:1016020083160313C200F130C100C10B062BC20BBB
:10161200062B83160313B1014D30B200B3014330E0
:10162200B7001630B6000030B5000030B4005208E2
:101632000A128A11F4250A128A1583160313310835
:10164200FA000800003083120313A4000030A30044
:101652000030A2000030A100750874047304720403
:101662000319342B352B822BA501A50A452B0130FA
:10167200A0000310F20DF30DF40DF50DA00B3A2BA3
:101682000130FF007F08A507F51F482B492B382B97
:101692000130A0000310A10DA20DA30DA40DA00BFB
:1016A2004B2B75087902031D602B74087802031D09
:1016B200602B73087702031D602B72087602031CED
:1016C200632B642B732B7208F6027308031C730FCF
:1016D200F7027408031C740FF8027508031C750FD7
:1016E200F902211401300310F50CF40CF30CF20C86
:1016F200FF3E031D742B0130A502031D812B822B9B
:10170200492B2408F5002308F4002208F3002108DD
:10171200F20008000310831203136B0D6C0DEE0030
:101722006E08031D952B962B9F2B0030EC0000308A
:10173200EB000030EA000030E9001A2C6908831639
:101742000313AD00831203136A0883160313AE005A
:10175200831203136B0883160313AF008312031360
:101762006C0883160313B0001F300310B00CAF0CCB
:10177200AE0CAD0CFF3E031DB62B2D0883120313D6
:10178200ED00EB17FF30E905FF30EA05FF30EB050E
:101792000030EC059630EE02EE1FD02BD12BEB2B56
:1017A2006E08803A973E0318D72BD82BD92B962B4D
:1017B20001300310EC0CEB0CEA0CE90CFF3E031DAC
:1017C200DA2B0130FF007F08EE07031DE92BEA2B1D
:1017D200D92B0A2C20306E02031CF02BF12B052C86
:1017E200962B013083160313AD00031083120313EB
:1017F200E90DEA0DEB0DEC0D83160313AD0BF62B81
:10180200013083120313EE026E08031D092C0A2C09
:10181200F22B6D0803190E2C0F2C1A2CE909EA0978
:10182200EB09EC09E90A0319EA0A0319EB0A03199D
:10183200EC0A080083120313A00020080319222CCB
:10184200232C372CF51F262C272C372C7209A200AB
:101852007309A3007409A4007509A500A20A03195B
:10186200A30A0319A40A0319A50A3F2C7508A500A7
:101872007408A4007308A3007208A2007508740417
:1018820073047204031D462C472C502C0030F500C3
:101892000030F4000030F3000030F200D42C963017
:1018A200A100602C0130FF007F08A1070130031066
:1018B200A50CA40CA30CA20CFF3E031D582CFE3059
:1018C2002505031D652C662C532C822C0130FF004C
:1018D2007F08A1070130A207003003180130A307D7
:1018E200003003180130A407003003180130A507A7
:1018F20001300310A50CA40CA30CA20CFF3E031D87
:101902007A2CFF302505031D872C882C672C942CFC
:101912000130A1020130F6000310A20DA30DA40DA7
:10192200A50DF60B8D2CA41B972C982C9E2C023007
:10193200210203189D2C9E2C892C2118A12CA22C4B
:10194200AA2CFF30A205FF30A3057F30A405FF308B
:10195200A5050310A10C2108F600F701F801F90111
:1019620018300310F60DF70DF80DF90DFF3E031DAB
:10197200B22C7608A2047708A3047808A404790894
:10198200A50420080319C62CC72CCC2CF51FCA2C81
:10199200CB2CCC2CA5172508F5002408F40023082D
:1019A200F3002208F20008000A168A1170260A12B1
:1019B2008A157A0883120313B200B3013208A00019
:1019C2003308A100D730A2000330A3000A128A1103
:1019D200F7260A128A15831203136F08B200B301A5
:1019E2003208A0003308A100DB30A2000230A300BD
:1019F2000A128A11F7260A128A15831603134E0851
:101A020083120313B200B3013208A0003308A1000D
:101A1200D330A2000330A3000A128A11F7260A1259
:101A22008A157B0883120313B200B3013208A000A7
:101A32003308A100DE30A200A301A30A0A128A1110
:101A4200F7260A128A15F601F60A01300A128A15D9
:101A520055210A128A151330F7008030F8000A1255
:101A62008A1539200A128A15D730F7000030F8009B
:101A72000A128A1539200A128A151630F7008030A8
:101A8200F8000A128A1539200A128A15F601F60A96
:101A920002300A128A1555210A128A151030F700EF
:101AA2008030F8000A128A1539200A128A15DB30B2
:101AB200F7000030F8000A128A1539200A128A1536
:101AC2000530F7008030F8000A128A1539200A1210
:101AD2008A150930F60001300A128A1555210A12B8
:101AE2008A150D30F7008030F8000A128A15392065
:101AF2000A128A15D330F7000030F8000A128A154C
:101B020039200A128A150930F7008030F8000A12CB
:101B12008A1539200A128A150930F60002300A1293
:101B22008A1555210A128A150130F7008030F80013
:101B32000A128A1539200A128A15DE30F70000309F
:101B4200F8000A128A1539200A128A15080083122F
:101B5200031329088039B6002908AE002E07B80001
:101B6200A81FB42DB52DB62D381438080319BA2D77
:101B7200BB2DCB2D380A031DBF2DC02DC82D003023
:101B8200A9000030A8000030A7000030A600A81766
:101B9200A901D32D0030A9000030A8000030A70011
:101BA2000030A6002D088039B70037083606031921
:101BB200DB2DDC2DDD2D36172D08AE002E07B700EC
:101BC200AC1FE42DE52DE62D371437080319EA2D55
:101BD200EB2DFB2D370A031DEF2DF02DF82D0030D4
:101BE200AD000030AC000030AB000030AA00AC17F2
:101BF200AD01032E0030AD000030AC000030AB0070
:101C02000030AA00380837020318082E092E2F2E9A
:101C1200361F0C2E0D2E112E8030FF007F08B606C7
:101C22003808B9003708B8003908B7002608B900E3
:101C32002A08A6003908AA002708B9002B08A7001D
:101C42003908AB002808B9002C08A8003908AC00F4
:101C52002908B9002D08A9003908AD00B9013708D3
:101C6200AE00AF012F08B10038082E02B000031CED
:101C7200B1033108803AFF0080307F02031D432EFA
:101C82001A303002031C462E472E7E2E8312031377
:101C92002908280427042604031D502E522E013041
:101CA200532E0030B9000030A9000030A8000030E7
:101CB200A7000030A6003708B800862E391C622E15
:101CC200632E6A2E3908AE0003102E0C0138B900BB
:101CD2006C2E0310B90C261C6F2E702E712EB917A4
:101CE2000130AE00290DA90CA80CA70CA60CAE0B56
:101CF200732E0130FF007F08B807831203133708E1
:101D02003802031C852E862E5F2E361B892E8A2EC4
:101D1200D32E3808031D8E2E8F2E982E0030A90048
:101D22000030A8000030A7000030A600FF2F2A08CC
:101D3200A6072B0803110318013E0319A12EA707BA
:101D42002C0803110318013E0319A82EA8072D0819
:101D520003110318013E0319AF2EA907291CB22E45
:101D6200B32E872F391CB62EB72EBE2E3908AE00E1
:101D720003102E0C0138B900C02E0310B90C261C1A
:101D8200C32EC42EC52EB9170130AE00290DA90CE1
:101D9200A80CA70CA60CAE0BC72E0130FF007F08C3
:101DA200B807872F2908803AFF002D08803A7F0262
:101DB200031DE52E2C082802031DE52E2B08270201
:101DC200031DE52E2A0826020318E82EE92E412FCC
:101DD200FF30AE00FF30AF00FF30B000FF30B10087
:101DE2002A08B2002B08B3002C08B4002D08B50055
:101DF2002608B2022708031C270F002F012FB30267
:101E02002808031C280F062F072FB4022908031CD9
:101E1200290F0C2F0D2FB5023208AE073308031815
:101E2200330F142F152FAF0734080318340F1A2F4E
:101E32001B2FB00735080318350AB1073108A9006E
:101E42003008A8002F08A7002E08A6008030FF0047
:101E52007F08B606B909B90A3908031D312F322F96
:101E62004F2F0130A607003003180130A7070030BA
:101E720003180130A807003003180130A9074F2FBB
:101E82002A08A6022B08031C2B0FA7022C08031CEE
:101E92002C0FA8022D08031C2D0FA90229082804C3
:101EA20027042604031D562F572F832F3908031D9D
:101EB2005B2F5C2F832F0030A9000030A800003078
:101EC200A7000030A600FF2F0130AE000310A60DC0
:101ED200A70DA80DA90DAE0B672FB91F712F722F79
:101EE200732F2614391C762F772F7A2F0314B90DEE
:101EF2007C2F0310B90D38080319802F812F832FEF
:101F02000130B802A81F862F872F652FB701B91F8E
:101F12008B2F8C2F9A2F39087F390319912F922FEB
:101F2200952FB701B70A9A2F261C982F992F9A2F0F
:101F3200922F370803199E2F9F2FD32F0130A60708
:101F4200003003180130A707003003180130A8073A
:101F5200003003180130A907291CB02FB12FD32F4D
:101F62002608AE002708AF002808B0002908B100F3
:101F72000130B200310DB10CB00CAF0CAE0CB20B93
:101F8200BB2F3108A9003008A8002F08A7002E088F
:101F9200A600380A0319CE2FCF2FD32F0130FF000E
:101FA2007F08B807380A0319D72FD82FDD2F380832
:101FB200031DDC2FDD2FEB2F0030A9000030A8001D
:101FC2000030A7000030A6003808031DE92FEA2FD1
:101FD200EB2FB601381CEE2FEF2FF12FA817F52F9C
:101FE2007F30FF007F08A8053808AE0003102E0CD2
:101FF200A900B61FFD2FFE2FFF2FA9170800FF1BF8
:102002000A2883137F1883170008840A0319FF0A1A
:10201200080010308A000408840A82070034493418
:1020220052343A3400342534523448340034703453
:1020320070346D34003447343A34003448343A341E
:0E204200003454343A3400342734433400342C
:102C780071088A00700E8300FE0E7E0E0900640043
:102C88008001840A0406031900340406442E0A1637
:102C98008A117D260A168A118316031391140800D7
:102CA8000A168A117D260A168A118316031311142F
:102CB80008000A168A117D260A168A11831603133C
:102CC800111508000A168A117D260A168A1172083B
:102CD800831203139300080000300A168A118A260B
:102CE8000A168A1101300A168A118A260A168A11CA
:102CF8000800831603131419822E832E7D2E1108C3
:102D08001F39031D882E892E7D2E0800F500831299
:102D18000313081175080A168A11A4260A168A11BF
:102D28008312031388150B30F4006230F300F30BA1
:102D38009B2EF40B9B2E00008312031388110800AE
:102D4800F200721CA82EA92EAD2E831203130816AA
:102D5800B02E831203130812F21CB32EB42EB62E13
:102D68008816B72E8812721DBA2EBB2EBD2E0817D4
:102D7800BE2E0813F21DC12EC22EC42E8817C52ED2
:102D880088130800803083120313BD064108A90088
:102D98004008A8003F08A7003E08A6003D08AD006F
:102DA8003C08AC003B08AB003A08AA000A128A1596
:102DB800A8250A168A11831203132908BD002808BA
:102DC800BC002708BB002608BA0008000A168A11AA
:102DD8007D260A168A118316031391150A168A117D
:102DE8007D260A168A11831203131308F400F501CD
:102DF8007408F6007508F7000A168A117D260A1667
:102E08008A1172037304031D0A2F0B2F0F2F8316C9
:102E180003139112122F83160313911611167708B4
:102E2800F3007608F2000800F60076080F39F4007F
:102E38007608F039F5008312031308157508F300B6
:102E480004300310F30CFF3E031D252F73080A16E8
:102E58008A11A4260A168A118312031388151A30B8
:102E6800F300F30B352F0000831203138811740845
:102E78000A168A11A4260A168A11831203138815C2
:102E88001A30F300F30B462F000083120313881146
:102E98000800831603178801890183160313850127
:102EA8008312031385018316031388018312031306
:102EB80088017030831603138F040F140A128A15C1
:102EC800A1210A168A111A3083120313AF00F730B2
:102ED800AE00AE0B6D2FAF0B6D2F722F003083122B
:102EE8000313A9000130A8008630A700A030A6006F
:102EF8000A128A1501200A168A110800720873043A
:102F08000319872F882FB72FF601F60A962F01305D
:102F18000310F20DF30DFF3E031D8C2F0130FF004F
:102F28007F08F607F31F992F9A2F8B2F73087502C6
:102F3800031DA02F72087402031CA32FA42FAA2F0D
:102F48007208F4027308031CF503F502013003103C
:102F5800F30CF20CFF3E031DAB2F0130F602031DEC
:102F6800B62FB72F9A2F7508F3007408F2000800DF
:102F7800F601F701720873040319C32FC42FFB2F3E
:102F8800F801F80AD22F01300310F20DF30DFF3EBD
:102F9800031DC82F0130FF007F08F807F31FD52F46
:102FA800D62FC72F01300310F60DF70DFF3E031D76
:102FB800D72F73087502031DE32F72087402031CD0
:102FC800E62FE72FEE2F7208F4027308031CF503AF
:102FD800F502761401300310F30CF20CFF3E031DCA
:102FE800EF2F0130F802031DFA2FFB2FD62F770899
:082FF800F3007608F200080066
:04400E00D420FF3F7C
:00000001FF
