:060000000A128A110C280F
:10000800FE00030EF0000A08F1000A128A15E82E15
:100018000A128A110F280A128A11FE270A128A1157
:10002800FB0083134A30840061300A128A15962631
:100038000A128A11FA0183010A128A11C12E0A12C0
:100048008A15CE260A128A117A0883120313B00081
:10005800B1013008A0003108A1005A30A2000330D5
:10006800A3000A128A11E9200A128A1183120313C3
:100078005408B000B1013008A0003108A1005E307A
:10008800A2000230A3000A128A11E9200A128A117A
:10009800831203134F08A1004E08A0005630A20097
:1000A8000330A3000A128A11E9200A128A11F60104
:1000B800F60A01300A128A11E4250A128A1115304B
:1000C800F7008030F8000A128A1108270A128A11EC
:1000D8005A30F7000030F8000A128A1108270A126D
:1000E8008A111830F7008030F8000A128A110827A0
:1000F8000A128A11F601F60A02300A128A11E42558
:100108000A128A111230F7008030F8000A128A1198
:1001180008270A128A115E30F7000030F8000A1228
:100128008A1108270A128A110730F7008030F80070
:100138000A128A1108270A128A110930F6000130BA
:100148000A128A11E4250A128A110F30F70080304A
:10015800F8000A128A1108270A128A115630F70085
:100168000030F8000A128A1108270A128A110B3087
:10017800F7008030F8000A128A1108270A128A113B
:100188000930F60002300A128A11E4250A128A118F
:100198000130F7008030F8000A128A1108270A1285
:1001A8008A1130307B06031DDA28DB28E228433029
:1001B8000A128A155B270A128A11E8284F300A1298
:1001C8008A155B270A128A1108000A30F2000030EB
:1001D800F300831203132108F5002008F4000A1223
:1001E8008A114E270A128A11730883120313A90071
:1001F8007208A8000A30F2000030F3002108F50068
:100208002008F4000A128A1192270A128A11730828
:1002180083120313AF007208AE000A30F2000030F8
:10022800F3002908F5002808F4000A128A114E275D
:100238000A128A11730883120313AB007208AA000A
:100248000A30F2000030F3002908F5002808F4000D
:100258000A128A1192270A128A1173088312031349
:10026800AD007208AC000A30F2000030F3002B0831
:10027800F5002A08F4000A128A114E270A128A1178
:10028800730883120313A5007208A4000A30F20051
:100298000030F3002B08F5002A08F4000A128A112E
:1002A80092270A128A11730883120313A70072088F
:1002B800A6000A30F2000030F3002508F5002408F3
:1002C800F4000A128A1192270A128A118312031360
:1002D8002303031D702971297829220884002E0818
:1002E800303E83138000A12902302306031D7D2997
:1002F8007E298A29220A84002E08303E8313800032
:10030800220884002C08303E8000A12903302306EF
:10031800031D8F299029A1292208023E84002E0856
:10032800303E83138000220A84002C08303E80006F
:10033800220884002608303E800008008312031338
:10034800AF01A81FA829A929B629A509A609A7099F
:10035800A809A50A0319A60A0319A70A0319A80ACE
:10036800AF01AF0AAC1FB929BA29C929A909AA0935
:10037800AB09AC09A90A0319AA0A0319AB0A03199C
:10038800AC0A0130FF007F08AF060030B300003030
:10039800B2000030B1000030B0002808270426045D
:1003A80025040319D829D929262AAE01AE0AE92934
:1003B8000130AD000310A50DA60DA70DA80DAD0BBE
:1003C800DE290130FF007F08AE07A81FEC29ED29C0
:1003D800DC290130AD000310B00DB10DB20DB30D25
:1003E800AD0BEF2928082C02031D042A27082B022D
:1003F800031D042A26082A02031D042A25082902A7
:10040800031C072A082A172A2508A9022608031CFC
:10041800260FAA022708031C270FAB022808031C73
:10042800280FAC02301401300310A80CA70CA60C3E
:10043800A50CFF3E031D182A0130AE02031D252A14
:10044800262AED292F0803192A2A2B2A362AB00929
:10045800B109B209B309B00A0319B10A0319B20AFA
:100468000319B30A3308A8003208A7003108A60008
:100478003008A5000800831203133708A8003608BF
:10048800A7003508A6003408A5000030AC007A3073
:10049800AB001230AA000030A9000A128A11A2216A
:1004A8000A128A11831203132808C0002708BF0004
:1004B8002608BE002508BD00FF30B800FF30B9008F
:1004C800FF30BA00FF30BB000030A8000030A700A2
:1004D8000030A6004030A5004008AC003F08AB0043
:1004E8003E08AA003D08A9000A128A11A2210A1290
:1004F8008A11831203132508B80726080318260F44
:10050800862A872AB90727080318270F8C2A8D2AD5
:10051800BA0728080318280ABB073B08C4003A088A
:10052800C3003908C2003808C10041088316031304
:100538009900831203134108B8004208B900430820
:10054800BA004408BB000830BC003B0DBB0CBA0C19
:10055800B90CB80CBC0BA92A3808831603139A00E7
:1005680018128312031398171816831603138C1680
:100578000B178B17831203138C12080083120313B3
:100588003708A8003608A7003508A6003408A500D3
:100598000030AC007A30AB001230AA000030A9005D
:1005A8000A128A11A2210A128A1183120313280837
:1005B800C0002708BF002608BE002508BD00FF3080
:1005C800B800FF30B900FF30BA00FF30BB00003080
:1005D800A8000030A7000030A6004030A500400861
:1005E800AC003F08AB003E08AA003D08A9000A126B
:1005F8008A11A2210A128A11831203132508B80747
:1006080026080318260F092B0A2BB90727080318F1
:10061800270F0F2B102BBA0728080318280ABB0727
:100628003B08C4003A08C3003908C2003808C100B2
:100638004108831603139900831203134108B80075
:100648004208B9004308BA004408BB000830BC009F
:100658003B0DBB0CBA0CB90CB80CBC0B2C2B3808D6
:10066800831603139A00181283120313981783161C
:10067800031398160C12831203130C12080000308F
:1006880083120313A4000030A3000030A20000303E
:10069800A10075087404730472040319542B552BB4
:1006A800A22BA501A50A652B0130A0000310F20DAD
:1006B800F30DF40DF50DA00B5A2B0130FF007F0848
:1006C800A507F51F682B692B582B0130A0000310D4
:1006D800A10DA20DA30DA40DA00B6B2B750879021B
:1006E800031D802B74087802031D802B7308770282
:1006F800031D802B72087602031C832B842B932BFB
:100708007208F6027308031C730FF7027408031CBF
:10071800740FF8027508031C750FF90221140130D3
:100728000310F50CF40CF30CF20CFF3E031D942B94
:100738000130A502031DA12BA22B692B2408F5006B
:100748002308F4002208F3002108F20008000A1226
:100758008A15A7260A128A112030F2000030F30009
:100768000A128A15B9260A128A114730F200003097
:10077800F3000A128A15B9260A128A113430831234
:100788000313C500F130C400C40BC82BC50BC82B1C
:100798000A128A159E260A128A112130F2000030A8
:1007A800F3000A128A15B9260A128A110030F200DB
:1007B800F3000A128A11CC270A128A1172088312CE
:1007C8000313D3000A128A15B0260A128A1134308C
:1007D80083120313C500F130C400C40BF12BC50B01
:1007E800F12B83120313B401FF30B5006430B60057
:1007F8000030BA000030B9000330B8002030B7002C
:1008080053080A128A11D9240A128A11831203136F
:100818003508CF003408CE00080033307A020318B8
:10082800162C172C222C0130831203134F029130FF
:1008380003194E02031C212C222C262C831203138D
:1008480051162A2C0F30FF007F08D105F030FF0029
:100858007F08D105382CD1144B2C0330FF007F08BA
:10086800D1044B2C51154B2C7B08F400F50175086D
:10087800003A0319402C2F2C7408303A03192F2CF6
:10088800013A0319312C033A0319362C2F2C0A127A
:100898008A15A7260A128A113030F2000030F300B8
:1008A8000A128A15B9260A128A11831203135108EB
:1008B800F400F5017408F2007508F3000A128A15AD
:1008C800B9260A128A110A128A15B0260A128A1142
:1008D8003430F500F130F400F40B702CF50B702C6B
:1008E800752C08000A128A15A7260A128A112030C8
:1008F800F2000030F3000A128A15B9260A128A118A
:100908005430F2000030F3000A128A15B9260A1290
:100918008A11343083120313C500F130C400C40BAC
:10092800932CC50B932C0A128A159E260A128A113B
:100938002130F2000030F3000A128A15B9260A1293
:100948008A110030F200F3000A128A11CC270A1229
:100958008A11720883120313D5000A128A15B02669
:100968000A128A11343083120313C500F130C4000F
:10097800C40BBC2CC50BBC2C83120313B4014D3023
:10098800B500B6010030BA000030B9000030B80038
:100998009630B70055080A128A11D9240A128A110A
:1009A800831203133408FA00080083120313C300E8
:1009B80034083502A500A601031CA603A701A61B3F
:1009C800A7032708A80034084302F200F301031C18
:1009D800F303F401F31BF4037408F5003608BB00B5
:1009E800BC01BD01BE013708BF003808C000390886
:1009F800C1003A08C2003B08BF023C08031C3C0F78
:100A0800062D072DC0023D08031C3D0F0C2D0D2D92
:100A1800C1023E08031C3E0F122D132DC2024208CC
:100A2800F9004108F8004008F7003F08F6000A12EC
:100A38008A1179260A128A11750883120313AC00E9
:100A48007408AB007308AA007208A9000A128A1178
:100A5800A2210A128A118312031336082507B4004B
:100A68000030031801302607B500080000300A12CC
:100A78008A1539270A128A113430F700F130F60046
:100A8800F60B442DF70B442D492D03300A128A1515
:100A9800FE260A128A110D30F700FB30F600F60B1D
:100AA800532DF70B532D582D03300A128A15FE26A5
:100AB8000A128A111D30F7009130F600F60B622DEC
:100AC800F70B622D03300A128A15FE260A128A11C4
:100AD80002300A128A15FE260A128A1102300A12F8
:100AE8008A15FE260A128A1108300A128A15FE266D
:100AF8000A128A1100300A128A15FE260A128A1171
:100B08000C300A128A15FE260A128A1100300A12BF
:100B18008A15FE260A128A1106300A128A15FE263E
:100B28000A128A110800831603178801890183169F
:100B3800031388018312031388017030831603138B
:100B48008F040F140A128A113A250A128A111A30D0
:100B580083120313C600F730C500C50BB12DC60BB1
:100B6800B12DB62D003083120313A9000130A8005F
:100B78008630A700A030A6000A128A15C8270A12D4
:100B88008A11003083120313B7000030B6002530F5
:100B9800B5008030B4000A128A113F220A128A1165
:100BA800003083120313B7000030B6002530B500BB
:100BB8008030B4000A128A11C2220A128A1108006F
:100BC80083120313A0002003031DEB2DEC2D0B2E25
:100BD80076087F3EA3002308F70004300310F70CC3
:100BE800FF3E031DF22D7708A10023080F39A2004C
:100BF80021080A128A15FE260A128A118312031383
:100C080022080A128A15FE260A128A112F2E02308D
:100C18002006031D102E112E2F2E7608BF3EA3008E
:100C28002308F70004300310F70CFF3E031D172EAE
:100C38007708A10023080F39A20021080A128A1593
:100C4800FE260A128A118312031322080A128A1531
:100C5800FE260A128A1108000A128A15A7260A1205
:100C68008A111030F2000030F3000A128A15B926F2
:100C78000A128A114830F2000030F3000A128A156D
:100C8800B9260A128A113430F900F130F800F80B4D
:100C98004B2EF90B4B2E502E0A128A159E260A123D
:100CA8008A111130F2000030F3000A128A15B926B1
:100CB8000A128A110030F200F3000A128A11CC27B6
:100CC8000A128A11720883120313D4000A128A15B1
:100CD800B0260A128A113430F900F130F800F80B06
:100CE800732EF90B732E782E08000030831203132D
:100CF800A4000030A3000030A2000030A100721C44
:100D0800862E872E9E2E7608A107770803110318D2
:100D1800013E0319902EA207780803110318013E1B
:100D28000319972EA307790803110318013E031925
:100D38009E2EA4070130A0000310F60DF70DF80D44
:100D4800F90DA00BA02E01300310F50CF40CF30CD8
:100D5800F20CFF3E031DA82E750874047304720478
:100D6800031DB72EB82E832E2408F5002308F4009F
:100D78002208F3002108F20008000A128A119725B8
:100D88000A128A111930831203135202031CCD2E42
:100D9800CE2ED62E0A128A1130260A128A118312F2
:100DA8000313D2010A128A1176240A128A110A122E
:100DB8008A11AB230A128A110A128A1111240A1203
:100DC8008A110A128A1123200A128A110A128A1514
:100DD80090270A128A110130FF007F08831203133B
:100DE800D207023083120313C9000430C800B93097
:100DF800C700C70BFD2EC80BFD2EC90BFD2E042FF7
:100E0800C62E0A128A110C2883120313A301A40107
:100E1800312F23087707A1007808A0000318A00A3B
:100E2800A31F172FA003831203132008A200220870
:100E3800FF00210884000A128A1500200A128A116C
:100E48000A128A155B270A128A11013083120313CA
:100E5800A3070318A40A0030A40723087707A100F2
:100E68007808A0000318A00AA31F3B2FA003831231
:100E780003132008A2002208FF00210884000A1298
:100E88008A1500200A128A11003A031D4C2F4D2F93
:100E98000D2F0800F601F701720873040319552F86
:100EA800562F8D2FF801F80A642F01300310F20D28
:100EB800F30DFF3E031D5A2F0130FF007F08F8078E
:100EC800F31F672F682F592F01300310F60DF70D08
:100ED800FF3E031D692F73087502031D752F7208E5
:100EE8007402031C782F792F802F7208F40273087C
:100EF800031CF503F502761401300310F30CF20C11
:100F0800FF3E031D812F0130F802031D8C2F8D2F0A
:100F1800682F7708F3007608F20008007208730457
:100F28000319972F982FC72FF601F60AA62F01301D
:100F38000310F20DF30DFF3E031D9C2F0130FF003F
:100F48007F08F607F31FA92FAA2F9B2F7308750296
:100F5800031DB02F72087402031CB32FB42FBA2FCD
:100F68007208F4027308031CF503F502013003103C
:100F7800F30CF20CFF3E031DBB2F0130F602031DDC
:100F8800C62FC72FAA2F7508F3007408F2000800AF
:100F98000A128A15DB260A128A1183160313911581
:100FA8000A128A15DB260A128A1183120313130800
:100FB800F400F5017408F6007508F7000A128A159E
:100FC800DB260A128A1172037304031DEC2FED2F1E
:100FD800F12F831603139112F42F8316031391161E
:100FE80011167708F3007608F2000800831203133D
:060FF8001A080800303465
:10100000FF1B0A2883137F1883170008840A03191B
:10101000FF0A080008308A000408840A82070034A6
:1010200044344F344F3452343A340034253452343B
:1010300048340034703470346D34003447343A34FA
:10104000003448343A34003454343A3400345E3492
:0410500043340034F1
:101D2C0064008001840A0406031900340406972E0B
:101D3C000A128A15DB260A128A15831603139114CC
:101D4C0008000A128A15DB260A128A158316031359
:101D5C00111408000A128A15DB260A128A1583163A
:101D6C000313111508000A128A15DB260A128A15AC
:101D7C0072088312031393000800F20083120313FA
:101D8C000C1EC92ECA2EC42E0C1272089900080003
:101D9C0000300A128A15FE260A128A1501300A1220
:101DAC008A15FE260A128A150800831603131419C5
:101DBC00E02EE12EDB2E11081F39031DE62EE72E37
:101DCC00DB2E0800831203138C1EED2EEE2EF72E45
:101DDC000A128A11FA270A128A15FB0083120313BE
:101DEC008C1271088A00700E8300FE0E7E0E0900A4
:101DFC00F50083120313081175080A128A15392786
:101E0C000A128A158312031388150B30F400623002
:101E1C00F300F30B0F2FF40B0F2F0000831203139F
:101E2C0088110800F600F401F5012D2F74087607CF
:101E3C00F3007308840000080A128A15C3260A12DC
:101E4C008A150130F4070318F50A0030F5077408F9
:101E5C007607F3007308840083130008031D372FE3
:101E6C00382F1C2F0800F200721C3D2F3E2F422FE2
:101E7C00831203130816452F831203130812F21C46
:101E8C00482F492F4B2F88164C2F8812721D4F2F1D
:101E9C00502F522F0817532F0813F21D562F572F60
:101EAC00592F88175A2F88130800F60076080F3917
:101EBC00F4007608F039F500831203130815750841
:101ECC00F30004300310F30CFF3E031D682F73085E
:101EDC000A128A1539270A128A15831203138815D8
:101EEC001A30F300F30B782F0000831203138811C0
:101EFC0074080A128A1539270A128A1583120313D9
:101F0C0088151A30F300F30B892F0000831203138A
:101F1C00881108000A300A128A15C3260A128A157B
:101F2C005A300A128A1518270A128A1520300A12FA
:101F3C008A15C3260A128A155E300A128A151827CA
:101F4C000A128A1520300A128A15C3260A128A151B
:101F5C0056300A128A1518270A128A1520300A12CE
:101F6C008A15C3260A128A150630F9001330F800B8
:101F7C00AD30F700F70BC02FF80BC02FF90BC02FAB
:101F8C00C72F080028308312031394008316031301
:101F9C009101831203132608AA002708AB00280816
:101FAC00AC002908AD0002300310AA0DAB0DAC0D2E
:101FBC00AD0DFF3E031DDA2F2D08F5002C08F400A3
:101FCC002B08F3002A08F2000030F9007A30F800F0
:101FDC001230F7000030F6000A128A1143230A125D
:101FEC008A157208FF3E831603139300940187151C
:041FFC0007160800BC
:04400E00D420FF3F7C
:00000001FF
