:100000000A128A110C28B434FE00030EF0000A080C
:10001000F1000A128A15D02E0A128A110F280A122C
:100020008A1103200A128A11DF0083134A308400E8
:100030005F300A128A15D7260A128A11FA01FB01CB
:1000400083010A128A11642D0A128A150F270A12D7
:100050008A117B0883120313B000B1013008A0009D
:100060003108A1005630A2000330A3000A128A1101
:10007000F2200A128A11831203135008B000B10152
:100080003008A0003108A1005A30A2000230A300BD
:100090000A128A11F2200A128A11831203134B08E2
:1000A000A1004A08A0005230A2000330A3000A12A7
:1000B0008A11F2200A128A11831203134E08B0002B
:1000C000B1013008A0003108A1005D30A200A301F9
:1000D000A30A0A128A11F2200A128A11F601F60AFC
:1000E00001300A128A11B0250A128A111330F70062
:1000F0008030F8000A128A11D6260A128A11563068
:10010000F7000030F8000A128A11D6260A128A1166
:100110001630F7008030F8000A128A11D6260A122B
:100120008A11F601F60A02300A128A11B0250A1263
:100130008A111030F7008030F8000A128A11D62692
:100140000A128A115A30F7000030F8000A128A1198
:10015000D6260A128A110530F7008030F8000A12FC
:100160008A11D6260A128A110930F60001300A12C5
:100170008A11B0250A128A110D30F7008030F8007C
:100180000A128A11D6260A128A115230F70000305C
:10019000F8000A128A11D6260A128A110930F700CD
:1001A0008030F8000A128A11D6260A128A11093004
:1001B000F60002300A128A11B0250A128A110130A3
:1001C000F7008030F8000A128A11D6260A128A1126
:1001D0005D30F7000030F8000A128A11D6260A12A4
:1001E0008A1108000A30F2000030F3008312031372
:1001F0002108F5002008F4000A128A111C270A12AF
:100200008A11730883120313A9007208A8000A3028
:10021000F2000030F3002108F5002008F4000A1273
:100220008A119E270A128A11730883120313AF00E2
:100230007208AE000A30F2000030F3002908F50021
:100240002808F4000A128A111C270A128A1173085E
:1002500083120313AB007208AA000A30F2000030C8
:10026000F3002908F5002808F4000A128A119E27D5
:100270000A128A11730883120313AD007208AC00CE
:100280000A30F2000030F3002B08F5002A08F400D1
:100290000A128A111C270A128A1173088312031387
:1002A000A5007208A4000A30F2000030F3002B0809
:1002B000F5002A08F4000A128A119E270A128A11F0
:1002C000730883120313A7007208A6000A30F20015
:1002D0000030F3002508F5002408F4000A128A1102
:1002E0009E270A128A11831203132303031D7929FF
:1002F0007A298129220884002E08303E8313800049
:10030000AA2902302306031D862987299329220A58
:1003100084002E08303E83138000220884002C08BD
:10032000303E8000AA2903302306031D982999290D
:10033000AA292208023E84002E08303E8313800042
:10034000220A84002C08303E8000220884002608FF
:10035000303E8000080083120313AF01A81FB129AB
:10036000B229BF29A509A609A709A809A50A031941
:10037000A60A0319A70A0319A80AAF01AF0AAC1FFE
:10038000C229C329D229A909AA09AB09AC09A90A1A
:100390000319AA0A0319AB0A0319AC0A0130FF00BA
:1003A0007F08AF060030B3000030B2000030B1006B
:1003B0000030B00028082704260425040319E12989
:1003C000E2292F2AAE01AE0AF2290130AD00031056
:1003D000A50DA60DA70DA80DAD0BE7290130FF0057
:1003E0007F08AE07A81FF529F629E5290130AD00E1
:1003F0000310B00DB10DB20DB30DAD0BF8292808E7
:100400002C02031D0D2A27082B02031D0D2A260886
:100410002A02031D0D2A25082902031C102A112A6D
:10042000202A2508A9022608031C260FAA0227084D
:10043000031C270FAB022808031C280FAC02301442
:1004400001300310A80CA70CA60CA50CFF3E031D41
:10045000212A0130AE02031D2E2A2F2AF6292F0849
:100460000319332A342A3F2AB009B109B209B30962
:10047000B00A0319B10A0319B20A0319B30A3308FF
:10048000A8003208A7003108A6003008A50008001F
:10049000831203133708A8003608A7003508A60002
:1004A0003408A5000030AC007A30AB001230AA004E
:1004B0000030A9000A128A11AB210A128A11831294
:1004C00003132808C0002708BF002608BE0025081F
:1004D000BD00FF30B800FF30B900FF30BA00FF3078
:1004E000BB000030A8000030A7000030A60040305C
:1004F000A5004008AC003F08AB003E08AA003D083C
:10050000A9000A128A11AB210A128A11831203135D
:100510002508B80726080318260F8F2A902AB9073E
:1005200027080318270F952A962ABA0728080318C0
:10053000280ABB073B08C4003A08C3003908C200B8
:100540003808C1004108831603139900831203136E
:100550004108B8004208B9004308BA004408BB008B
:100560000830BC003B0DBB0CBA0CB90CB80CBC0B72
:10057000B22A3808831603139A0018128312031341
:1005800098178316031398160C12831203130C1278
:100590000800003083120313A4000030A3000030D1
:1005A000A2000030A10075087404730472040319DA
:1005B000DA2ADB2A282BA501A50AEB2A0130A000A4
:1005C0000310F20DF30DF40DF50DA00BE02A013030
:1005D000FF007F08A507F51FEE2AEF2ADE2A01306B
:1005E000A0000310A10DA20DA30DA40DA00BF12AD4
:1005F00075087902031D062B74087802031D062B6B
:1006000073087702031D062B72087602031C092B60
:100610000A2B192B7208F6027308031C730FF702DA
:100620007408031C740FF8027508031C750FF90297
:10063000211401300310F50CF40CF30CF20CFF3E06
:10064000031D1A2B0130A502031D272B282BEF2A8F
:100650002408F5002308F4002208F3002108F20022
:1006600008000A128A15E8260A128A112030F200C0
:100670000030F3000A128A15FA260A128A1147304E
:10068000F2000030F3000A128A15FA260A128A11C3
:10069000343083120313C500F130C400C40B4E2B59
:1006A000C50B4E2B0A128A15DF260A128A11213039
:1006B000F2000030F3000A128A15FA260A128A1193
:1006C0000030F200F3000A128A1565270A128A1117
:1006D000720883120313CF000A128A15F1260A1238
:1006E0008A11343083120313C500F130C400C40BE7
:1006F000772BC50B772B83120313B401FF30B500A2
:100700006430B6000030BA000030B9000330B800E1
:100710002030B7004F080A128A11FA230A128A11F0
:10072000831203133508CB003408CA0008000A12EC
:100730008A15E8260A128A112030F2000030F300F0
:100740000A128A15FA260A128A115430F200003071
:10075000F3000A128A15FA260A128A11343083121B
:100760000313C500F130C400C40BB42BC50BB42B6C
:100770000A128A15DF260A128A112130F20000308F
:10078000F3000A128A15FA260A128A110030F200C2
:10079000F3000A128A1565270A128A117208831259
:1007A0000313D1000A128A15F1260A128A11343075
:1007B00083120313C500F130C400C40BDD2BC50B3D
:1007C000DD2B83120313B4014D30B500B6010030A8
:1007D000BA000030B9000030B8009630B7005108B8
:1007E0000A128A11FA230A128A1183120313340897
:1007F000FB00080083120313C30034083502A50070
:10080000A601031CA603A701A61BA7032708A8008F
:1008100034084302F200F301031CF303F401F31B59
:10082000F4037408F5003608BB00BC01BD01BE012D
:100830003708BF003808C0003908C1003A08C200B4
:100840003B08BF023C08031C3C0F272C282CC0028D
:100850003D08031C3D0F2D2C2E2CC1023E08031C0D
:100860003E0F332C342CC2024208F9004108F80034
:100870004008F7003F08F6000A128A118E260A1275
:100880008A11750883120313AC007408AB00730857
:10089000AA007208A9000A128A11AB210A128A1151
:1008A0008312031336082507B40000300318013003
:1008B0002607B500080000300A128A1543270A12DD
:1008C0008A113430F700F130F600F60B652CF70B87
:1008D000652C6A2C03300A128A1529270A128A11FC
:1008E0000D30F700FB30F600F60B742CF70B742C70
:1008F000792C03300A128A1529270A128A111D3011
:10090000F7009130F600F60B832CF70B832C0330A5
:100910000A128A1529270A128A1102300A128A1528
:1009200029270A128A1102300A128A1529270A1267
:100930008A1108300A128A1529270A128A110030F2
:100940000A128A1529270A128A110C300A128A15EE
:1009500029270A128A1100300A128A1529270A1239
:100960008A1106300A128A1529270A128A110800EC
:1009700033307B020318BD2CBE2CC92C01308312EE
:1009800003134B02913003194A02031CC82CC92CD3
:10099000CB2C7A16D92C0F30FF007F08FA05D92C02
:1009A000FA14E92C0330FF007F08FA04E92C7A15C9
:1009B000E92C0030003A0319DE2CD02CB430003A78
:1009C0000319D02C5A3A0319D22CEE3A0319D72C1A
:1009D000D02C0A128A15E8260A128A113030F20049
:1009E0000030F3000A128A15FA260A128A117A08D0
:1009F000F400F5017408F2007508F3000A128A1574
:100A0000FA260A128A110A128A15F1260A128A1186
:100A10003430F500F130F400F40B0C2DF50B0C2DF7
:100A2000112D08000A300A128A1504270A128A11A9
:100A30007B080A128A1504270A128A1120300A122A
:100A40008A1504270A128A118312031350080A1206
:100A50008A1504270A128A1120300A128A150427DF
:100A60000A128A11831203134B080A128A150427EB
:100A70000A128A11831203134A080A128A150427DC
:100A80000A128A1120300A128A1504270A128A11C2
:100A9000831203134E080A128A1504270A128A11B8
:100AA00020300A128A1504270A128A110630F5002E
:100AB0001330F400AD30F300F30B5C2DF40B5C2D20
:100AC000F50B5C2D632D08000A128A1160270A12AB
:100AD0008A111930831203134D02031C702D712DDE
:100AE000792D0A128A1145260A128A1183120313DC
:100AF000CD010A128A1197230A128A110A128A1149
:100B000031230A128A110A128A11FC250A128A114B
:100B10000A128A11B8240A128A110A128A11242090
:100B20000A128A110A128A1112250A128A11023037
:100B300083120313C9000430C800B930C700C70BC3
:100B40009F2DC80B9F2DC90B9F2DA62D0130FF0097
:100B50007F0883120313CD07692D0A128A110C280E
:100B600083120313A0002003031DB72DB82DD72D2A
:100B700076087F3EA3002308F70004300310F70C2B
:100B8000FF3E031DBE2D7708A10023080F39A200E8
:100B900021080A128A1529270A128A1183120313BF
:100BA00022080A128A1529270A128A11FB2D0230FF
:100BB0002006031DDC2DDD2DFB2D7608BF3EA30096
:100BC0002308F70004300310F70CFF3E031DE32D4C
:100BD0007708A10023080F39A20021080A128A15FC
:100BE00029270A128A118312031322080A128A156E
:100BF00029270A128A1108000A128A15E8260A1201
:100C00008A112030F2000030F3000A128A15FA2609
:100C10000A128A114930F2000030F3000A128A15D4
:100C2000FA260A128A113430F900F130F800F80B74
:100C3000172EF90B172E1C2E0A128A15DF260A1200
:100C40008A112130F2000030F3000A128A15FA26C8
:100C50000A128A110030F200F3000A128A15652781
:100C60000A128A11720883120313CE000A128A151F
:100C7000F1260A128A113430F900F130F800F80B2D
:100C80003F2EF90B3F2E442E08000A128A15E82643
:100C90000A128A111030F2000030F3000A128A158D
:100CA000FA260A128A114830F2000030F3000A12C4
:100CB0008A15FA260A128A113430F900F130F80048
:100CC000F80B602EF90B602E652E0A128A15DF26AE
:100CD0000A128A111130F2000030F3000A128A154C
:100CE000FA260A128A110030F200F3000A128A155D
:100CF00065270A128A11720883120313D0000A12A0
:100D00008A15F1260A128A113430F900F130F80000
:100D1000F80B882EF90B882E8D2E080000308312D8
:100D20000313A4000030A3000030A2000030A10093
:100D3000721C9B2E9C2EB32E7608A10777080311F8
:100D40000318013E0319A52EA20778080311031802
:100D5000013E0319AC2EA307790803110318013EC5
:100D60000319B32EA4070130A0000310F60DF70DF0
:100D7000F80DF90DA00BB52E01300310F50CF40C95
:100D8000F30CF20CFF3E031DBD2E750874047304B2
:100D90007204031DCC2ECD2E982E2408F5002308B6
:100DA000F4002208F3002108F20008008312031364
:100DB000A301A401FF2E23087707A1007808A00053
:100DC0000318A00AA31FE52EA00383120313200813
:100DD000A2002208FF00210884000A128A11D827E5
:100DE0000A128A110A128A1593270A128A110130EF
:100DF00083120313A3070318A40A0030A4072308CF
:100E00007707A1007808A0000318A00AA31F092FE4
:100E1000A003831203132008A2002208FF00210868
:100E200084000A128A11D8270A128A11003A031D77
:100E30001A2F1B2FDB2E0800F601F701720873042E
:100E40000319232F242F5B2FF801F80A322F0130CA
:100E50000310F20DF30DFF3E031D282F0130FF009C
:100E60007F08F807F31F352F362F272F0130031087
:100E7000F60DF70DFF3E031D372F73087502031D96
:100E8000432F72087402031C462F472F4E2F7208FF
:100E9000F4027308031CF503F50276140130031005
:100EA000F30CF20CFF3E031D4F2F0130F802031D1F
:100EB0005A2F5B2F362F7708F3007608F2000800D0
:100EC000831603178801890183160313880183128F
:100ED000031388017030831603138F040F140A1252
:100EE0008A115B240A128A111A3083120313C60076
:100EF000F730C500C50B7A2FC60B7A2F7F2F003035
:100F000083120313A9000130A8008630A700A03087
:100F1000A6000A128A15C8270A128A110030831205
:100F20000313B7000030B6002530B5008030B400A0
:100F30000A128A1148220A128A11080072087304E0
:100F40000319A32FA42FD32FF601F60AB22F0130D5
:100F50000310F20DF30DFF3E031DA82F0130FF001B
:100F60007F08F607F31FB52FB62FA72F730875025A
:100F7000031DBC2F72087402031CBF2FC02FC62F85
:100F80007208F4027308031CF503F5020130031024
:100F9000F30CF20CFF3E031DC72F0130F602031DB8
:100FA000D22FD32FB62F7508F3007408F200080073
:100FB000FF1BE22F83137F1883170008840A03198D
:100FC000FF0A080007308A000408840A82070034F8
:100FD000493452343A3400342534523448340034DD
:100FE000703470346D34003447343A34003448344B
:100FF0003A34003454343A3400345E3443340034E8
:101DA00071088A00700E8300FE0E7E0E090064002A
:101DB0008001840A0406031900340406D82E0A128E
:101DC0008A151C270A128A1583160313911408001A
:101DD0000A128A151C270A128A1583160313111476
:101DE00008000A128A151C270A128A158316031383
:101DF000111508000A128A151C270A128A15720882
:101E00008312031393000800F200831203130C1EC5
:101E10000A2F0B2F052F0C127208990008000030B2
:101E20000A128A1529270A128A1501300A128A1500
:101E300029270A128A150800831603131419212F63
:101E4000222F1C2F11081F39031D272F282F1C2F6D
:101E50000800F50083120313081175080A128A1589
:101E600043270A128A158312031388150B30F400D6
:101E70006230F300F30B3A2FF40B3A2F0000831279
:101E8000031388110800F200721C472F482F4C2FB3
:101E90008312031308164F2F831203130812F21C28
:101EA000522F532F552F8816562F8812721D592FD7
:101EB0005A2F5C2F08175D2F0813F21D602F612F1A
:101EC000632F8817642F881308000A128A151C27AD
:101ED0000A128A158316031391150A128A151C27F4
:101EE0000A128A15831203131308F400F50174080B
:101EF000F6007508F7000A128A151C270A128A15BF
:101F000072037304031D852F862F8A2F83160313F4
:101F100091128D2F83160313911611167708F30073
:101F20007608F2000800F60076080F39F40076080B
:101F3000F039F5008312031308157508F300043017
:101F40000310F30CFF3E031DA02F73080A128A151D
:101F500043270A128A158312031388151A30F300D7
:101F6000F30BB02F000083120313881174080A12B8
:101F70008A1543270A128A158312031388151A300B
:101F8000F300F30BC12F0000831203138811080024
:101F900028308312031394008316031391018312D4
:101FA00003132608AA002708AB002808AC0029085C
:101FB000AD0002300310AA0DAB0DAC0DAD0DFF3E10
:101FC000031DDA2F2D08F5002C08F4002B08F30070
:101FD0002A08F2000030F9007A30F8001230F700D9
:101FE0000030F6000A128A11C9220A128A157208F4
:101FF000FF3E83160313930094018715071608000C
:04400E00D420FF3F7C
:00000001FF
