:060000000A128A110C280F
:10000800FE00030EF0000A08F1000A128A15952E68
:100018000A128A110F28FA01FB0183134A3084005F
:1000280060300A128A1550260A128A1183010A12B0
:100038008A11392E0A128A1588260A128A117B0813
:1000480083120313B000B1013008A0003108A100E9
:100058005730A2000330A3000A128A11EC200A12BA
:100068008A11831203135108B000B1013008A000AF
:100078003108A1005B30A2000230A3000A128A11E5
:10008800EC200A128A11831203134B08A1004A08B4
:10009800A0005330A2000330A3000A128A11EC20FA
:1000A8000A128A11831203134F08B000B1013008F5
:1000B800A0003108A1005E30A200A301A30A0A1221
:1000C8008A11EC200A128A11F601F60A01300A1286
:1000D8008A1185260A128A111330F7008030F80039
:1000E8000A128A11AB270A128A115730F70000301A
:1000F800F8000A128A11AB270A128A111630F70083
:100108008030F8000A128A11AB270A128A11F60108
:10011800F60A02300A128A1185260A128A1110304C
:10012800F7008030F8000A128A11AB270A128A11E8
:100138005B30F7000030F8000A128A11AB270A1268
:100148008A110530F7008030F8000A128A11AB27AF
:100158000A128A110930F60001300A128A1185261E
:100168000A128A110D30F7008030F8000A128A113D
:10017800AB270A128A115330F7000030F8000A1230
:100188008A11AB270A128A110930F7008030F8006B
:100198000A128A11AB270A128A110930F6000230B6
:1001A8000A128A1185260A128A110130F700803056
:1001B800F8000A128A11AB270A128A115E30F7007A
:1001C8000030F8000A128A11AB270A128A110800B7
:1001D8000A30F2000030F300831203132108F500FF
:1001E8002008F4000A128A15BC270A128A1173081B
:1001F80083120313A9007208A8000A30F200003025
:10020800F3002108F5002008F4000A128A15822755
:100218000A128A11730883120313AF007208AE0022
:100228000A30F2000030F3002908F5002808F4002D
:100238000A128A15BC270A128A117308831203133B
:10024800AB007208AA000A30F2000030F300290857
:10025800F5002808F4000A128A1582270A128A1162
:10026800730883120313AD007208AC000A30F20061
:100278000030F3002B08F5002A08F4000A128A154A
:10028800BC270A128A11730883120313A500720887
:10029800A4000A30F2000030F3002B08F5002A0809
:1002A800F4000A128A1582270A128A117308831227
:1002B8000313A7007208A6000A30F2000030F3000A
:1002C8002508F5002408F4000A128A1582270A1264
:1002D8008A11831203132303031D732974297B29AD
:1002E800220884002E08303E83138000A42902309F
:1002F8002306031D802981298D29220A84002E08BE
:10030800303E83138000220884002C08303E800091
:10031800A42903302306031D92299329A42922081E
:10032800023E84002E08303E83138000220A840097
:100338002C08303E8000220884002608303E8000C9
:10034800080083120313AF01A81FAB29AC29B929F0
:10035800A509A609A709A809A50A0319A60A031940
:10036800A70A0319A80AAF01AF0AAC1FBC29BD2907
:10037800CC29A909AA09AB09AC09A90A0319AA0A2F
:100388000319AB0A0319AC0A0130FF007F08AF0656
:100398000030B3000030B2000030B1000030B000CF
:1003A80028082704260425040319DB29DC29292A1F
:1003B800AE01AE0AEC290130AD000310A50DA60D63
:1003C800A70DA80DAD0BE1290130FF007F08AE078E
:1003D800A81FEF29F029DF290130AD000310B00D67
:1003E800B10DB20DB30DAD0BF22928082C02031D77
:1003F800072A27082B02031D072A26082A02031D9D
:10040800072A25082902031C0A2A0B2A1A2A250862
:10041800A9022608031C260FAA022708031C270F77
:10042800AB022808031C280FAC023014013003105B
:10043800A80CA70CA60CA50CFF3E031D1B2A013017
:10044800AE02031D282A292AF0292F0803192D2A6C
:100458002E2A392AB009B109B209B309B00A031919
:10046800B10A0319B20A0319B30A3308A8003208FB
:10047800A7003108A6003008A5000800831203135E
:100488003708A8003608A7003508A6003408A500D4
:100498000030AC007A30AB001230AA000030A9005E
:1004A8000A128A11A5210A128A1183120313280835
:1004B800C0002708BF002608BE002508BD00FF3081
:1004C800B800FF30B900FF30BA00FF30BB00003081
:1004D800A8000030A7000030A6004030A500400862
:1004E800AC003F08AB003E08AA003D08A9000A126C
:1004F8008A11A5210A128A11831203132508B80745
:1005080026080318260F892A8A2AB90727080318F4
:10051800270F8F2A902ABA0728080318280ABB072A
:100528003B08C4003A08C3003908C2003808C100B3
:100538004108831603139900831203134108B80076
:100548004208B9004308BA004408BB000830BC00A0
:100558003B0DBB0CBA0CB90CB80CBC0BAC2A380858
:10056800831603139A001812831203139817181688
:10057800831603138C160B178B17831203138C1215
:100588000800831203133708A8003608A7003508A7
:10059800A6003408A5000030AC007A30AB00123059
:1005A800AA000030A9000A128A11A5210A128A118C
:1005B800831203132808C0002708BF002608BE00BE
:1005C8002508BD00FF30B800FF30B900FF30BA0081
:1005D800FF30BB000030A8000030A7000030A600A4
:1005E8004030A5004008AC003F08AB003E08AA0018
:1005F8003D08A9000A128A11A5210A128A1183123C
:1006080003132508B80726080318260F0C2B0D2BF3
:10061800B90727080318270F122B132BBA07280826
:100628000318280ABB073B08C4003A08C300390866
:10063800C2003808C10041088316031399008312C9
:1006480003134108B8004208B9004308BA00440837
:10065800BB000830BC003B0DBB0CBA0CB90CB80C85
:10066800BC0B2F2B3808831603139A001812831219
:10067800031398178316031398160C128312031387
:100688000C120800003083120313A4000030A300EA
:100698000030A2000030A1007508740473047204CD
:1006A8000319572B582BA52BA501A50A682B013038
:1006B800A0000310F20DF30DF40DF50DA00B5D2B4A
:1006C8000130FF007F08A507F51F6B2B6C2B5B2BF8
:1006D8000130A0000310A10DA20DA30DA40DA00BC5
:1006E8006E2B75087902031D832B74087802031D8D
:1006F800832B73087702031D832B72087602031C71
:10070800862B872B962B7208F6027308031C730F2F
:10071800F7027408031C740FF8027508031C750FA0
:10072800F902211401300310F50CF40CF30CF20C4F
:10073800FF3E031D972B0130A502031DA42BA52BFB
:100748006C2B2408F5002308F4002208F300210884
:10075800F20008000A128A1561260A128A1120304E
:10076800F2000030F3000A128A1573260A128A1161
:100778004730F2000030F3000A128A1573260A1275
:100788008A11343083120313C500F130C400C40B3E
:10079800CB2BC50BCB2B0A128A1558260A128A11A5
:1007A8002130F2000030F3000A128A1573260A126B
:1007B8008A110030F200F3000A128A15E7260A129D
:1007C8008A11720883120313D0000A128A156A2646
:1007D8000A128A11343083120313C500F130C400A1
:1007E800C40BF42BC50BF42B83120313B401FF3095
:1007F800B5006430B6000030BA000030B9000330EC
:10080800B8002030B70050080A128A11DC240A12F6
:100818008A11831203133508CB003408CA00080074
:1008280033307B02031C192C1A2C272C013083121D
:1008380003134B02913003194A02031C242C252C64
:10084800272C4D162D2C0F30FF007F088312031321
:10085800CD05F030FF007F08CD053B2CCD144E2C84
:100868000330FF007F08CD044E2C4D154E2C7A081E
:10087800F400F5017508003A0319432C322C74086A
:10088800303A0319322C013A0319342C033A03196C
:10089800392C322C0A128A1561260A128A11303034
:1008A800F2000030F3000A128A1573260A128A1120
:1008B800831203134D08F400F5017408F20075085B
:1008C800F3000A128A1573260A128A110A128A1567
:1008D8006A260A128A113430F500F130F400F40B5C
:1008E800732CF50B732C782C08000A128A156126D4
:1008F8000A128A112030F2000030F3000A128A1519
:1009080073260A128A115430F2000030F3000A12DA
:100918008A1573260A128A11343083120313C5000C
:10092800F130C400C40B962CC50B962C0A128A15FC
:1009380058260A128A112130F2000030F3000A12F8
:100948008A1573260A128A110030F200F3000A127F
:100958008A15E7260A128A11720883120313D20035
:100968000A128A156A260A128A113430831203136E
:10097800C500F130C400C40BBF2CC50BBF2C8312BB
:100988000313B4014D30B500B6010030BA00003091
:10099800B9000030B8009630B70052080A128A1120
:1009A800DC240A128A11831203133408FB0008009E
:1009B80083120313C30034083502A500A601031CE3
:1009C800A603A701A61BA7032708A800340843020B
:1009D800F200F301031CF303F401F31BF40374089E
:1009E800F5003608BB00BC01BD01BE013708BF00D9
:1009F8003808C0003908C1003A08C2003B08BF02E5
:100A08003C08031C3C0F092D0A2DC0023D08031C9D
:100A18003D0F0F2D102DC1023E08031C3E0F152D52
:100A2800162DC2024208F9004108F8004008F700F4
:100A38003F08F6000A128A1163270A128A117508FC
:100A480083120313AC007408AB007308AA00720881
:100A5800A9000A128A11A5210A128A118312031306
:100A680036082507B4000030031801302607B50002
:100A7800080000300A128A15C5260A128A11343075
:100A8800F700F130F600F60B472DF70B472D4C2DEC
:100A980003300A128A15AB260A128A110D30F700A4
:100AA800FB30F600F60B562DF70B562D5B2D033059
:100AB8000A128A15AB260A128A111D30F7009130E6
:100AC800F600F60B652DF70B652D03300A128A1513
:100AD800AB260A128A1102300A128A15AB260A12AC
:100AE8008A1102300A128A15AB260A128A110830B6
:100AF8000A128A15AB260A128A1100300A128A15C0
:100B0800AB260A128A110C300A128A15AB260A1271
:100B18008A1100300A128A15AB260A128A11063089
:100B28000A128A15AB260A128A1108000A300A121C
:100B38008A157D260A128A117B080A128A157D26D3
:100B48000A128A1120300A128A157D260A128A1181
:100B58008312031351080A128A157D260A128A1174
:100B680020300A128A157D260A128A11831203136D
:100B78004B080A128A157D260A128A11831203135A
:100B88004A080A128A157D260A128A1120300A128A
:100B98008A157D260A128A11831203134F080A1236
:100BA8008A157D260A128A1120300A128A157D2696
:100BB8000A128A110630F5001330F400AD30F30044
:100BC800F30BE42DF40BE42DF50BE42DEB2D0800CD
:100BD800831603178801890183160313880183127A
:100BE800031388017030831603138F040F140A123D
:100BF8008A113D250A128A111A3083120313C6007E
:100C0800F730C500C50B062EC60B062E0B2E00307E
:100C180083120313A9000130A8008630A700A03072
:100C2800A6000A128A154A270A128A11003083126E
:100C38000313B7000030B6002530B5008030B4008B
:100C48000A128A1142220A128A11003083120313EF
:100C5800B7000030B6002530B5008030B4000A1265
:100C68008A11C5220A128A1108000A128A11EC2573
:100C78000A128A111930831203134E02031C452EDF
:100C8800462E4E2E0A128A111A270A128A11831228
:100C98000313CE010A128A1179240A128A110A1240
:100CA8008A11AE230A128A110A128A11D1260A124F
:100CB8008A110A128A1114240A128A110A128A1134
:100CC8001E200A128A110A128A119A250A128A11FA
:100CD8000130FF007F0883120313CE07023083120E
:100CE8000313C9000430C800B930C700C70B7A2EF7
:100CF800C80B7A2EC90B7A2E812E3E2E0A128A1123
:100D08000C2883120313A0002003031D8C2E8D2EA4
:100D1800AC2E76087F3EA3002308F70004300310AA
:100D2800F70CFF3E031D932E7708A10023080F3907
:100D3800A20021080A128A15AB260A128A11831208
:100D4800031322080A128A15AB260A128A11D02E1A
:100D580002302006031DB12EB22ED02E7608BF3EDB
:100D6800A3002308F70004300310F70CFF3E031D0F
:100D7800B82E7708A10023080F39A20021080A120B
:100D88008A15AB260A128A118312031322080A1243
:100D98008A15AB260A128A1108000A128A156126DA
:100DA8000A128A112030F2000030F3000A128A1564
:100DB80073260A128A114930F2000030F3000A1231
:100DC8008A1573260A128A113430F900F130F800B6
:100DD800F80BEC2EF90BEC2EF12E0A128A15582678
:100DE8000A128A112130F2000030F3000A128A1523
:100DF80073260A128A110030F200F3000A128A15CB
:100E0800E7260A128A11720883120313CF000A1206
:100E18008A156A260A128A113430F900F130F8006E
:100E2800F80B142FF90B142F192F08000A128A1522
:100E380061260A128A111030F2000030F3000A12FB
:100E48008A1573260A128A114830F2000030F3001E
:100E58000A128A1573260A128A113430F900F13001
:100E6800F800F80B352FF90B352F3A2F0A128A158F
:100E780058260A128A111130F2000030F3000A12C3
:100E88008A1573260A128A110030F200F3000A123A
:100E98008A15E7260A128A11720883120313D100F1
:100EA8000A128A156A260A128A113430F900F130BA
:100EB800F800F80B5D2FF90B5D2F622F080000304A
:100EC80083120313A4000030A3000030A2000030F6
:100ED800A100721C702F712F882F7608A107770840
:100EE80003110318013E03197A2FA207780803118A
:100EF8000318013E0319812FA3077908031103186A
:100F0800013E0319882FA4070130A0000310F60D35
:100F1800F70DF80DF90DA00B8A2F01300310F50C11
:100F2800F40CF30CF20CFF3E031D922F75087404A9
:100F380073047204031DA12FA22F6D2F2408F5003E
:100F48002308F4002208F3002108F20008008312A5
:100F58000313A301A401D42F23087707A10078085D
:100F6800A0000318A00AA31FBA2FA003831203131B
:100F78002008A2002208FF00210884000A128A150E
:100F880000200A128A110A128A1515270A128A11D4
:100F9800013083120313A3070318A40A0030A4071F
:100FA80023087707A1007808A0000318A00AA31F48
:100FB800DE2FA003831203132008A2002208FF00DB
:100FC800210884000A128A1500200A128A11003AA0
:100FD800031DEF2FF02FB02F0800831603131419E9
:100FE800F62FF72FF12F11081F39031DFC2FFD2FA6
:040FF800F12F0800CD
:10100000FF1B0A2883137F1883170008840A03191B
:10101000FF0A080008308A000408840A82070034A6
:10102000493452343A34003425345234483400348C
:10103000703470346D34003447343A3400344834FA
:101040003A34003454343A3400345E344334003497
:101C9800831203131A08080064008001840A0406EA
:101CA800031900340406512E0A128A11F1270A1268
:101CB8008A1583160313911408000A128A11F12752
:101CC8000A128A1583160313111408000A128A11BE
:101CD800F1270A128A1583160313111508000A1230
:101CE8008A11F1270A128A157208831203139300C6
:101CF8000800F200831203130C1E832E842E7E2EFE
:101D08000C1272089900080000300A128A15AB26D6
:101D18000A128A1501300A128A15AB260A128A1588
:101D28000800831203138C1E9A2E9B2EA42E0A12CF
:101D38008A154C260A128A15FA00831203138C128C
:101D480071088A00700E8300FE0E7E0E0900F500F1
:101D580083120313081175080A128A15C5260A1278
:101D68008A158312031388150B30F4006230F300D0
:101D7800F30BBC2EF40BBC2E000083120313881146
:101D88000800F200721CC92ECA2ECE2E831203132D
:101D98000816D12E831203130812F21CD42ED52E46
:101DA800D72E8816D82E8812721DDB2EDC2EDE2E3A
:101DB8000817DF2E0813F21DE22EE32EE52E8817F2
:101DC800E62E881308000A128A11F1270A128A15CA
:101DD8008316031391150A128A11F1270A128A151C
:101DE800831203131308F400F5017408F60075084C
:101DF800F7000A128A11F1270A128A15720373046E
:101E0800031D072F082F0C2F8316031391120F2F72
:101E180083160313911611167708F3007608F2005B
:101E28000800F60076080F39F4007608F039F50056
:101E38008312031308157508F30004300310F30C1C
:101E4800FF3E031D222F73080A128A15C5260A129F
:101E58008A158312031388151A30F300F30B322FF7
:101E6800000083120313881174080A128A15C52604
:101E78000A128A158312031388151A30F300F30B1C
:101E8800432F00008312031388110800283083129F
:101E98000313940083160313910183120313260876
:101EA800AA002708AB002808AC002908AD000230BA
:101EB8000310AA0DAB0DAC0DAD0DFF3E031D5C2F3D
:101EC8002D08F5002C08F4002B08F3002A08F2006E
:101ED8000030F9007A30F8001230F7000030F600D0
:101EE8000A128A1146230A128A157208FF3E8316BF
:101EF80003139300940187150716080072087304EA
:101F08000319872F882FB72FF601F60A962F01306D
:101F18000310F20DF30DFF3E031D8C2F0130FF005F
:101F28007F08F607F31F992F9A2F8B2F73087502D6
:101F3800031DA02F72087402031CA32FA42FAA2F1D
:101F48007208F4027308031CF503F502013003104C
:101F5800F30CF20CFF3E031DAB2F0130F602031DFC
:101F6800B62FB72F9A2F7508F3007408F2000800EF
:101F7800F601F701720873040319C32FC42FFB2F4E
:101F8800F801F80AD22F01300310F20DF30DFF3ECD
:101F9800031DC82F0130FF007F08F807F31FD52F56
:101FA800D62FC72F01300310F60DF70DFF3E031D86
:101FB800D72F73087502031DE32F72087402031CE0
:101FC800E62FE72FEE2F7208F4027308031CF503BF
:101FD800F502761401300310F30CF20CFF3E031DDA
:101FE800EF2F0130F802031DFA2FFB2FD62F7708A9
:081FF800F3007608F200080076
:04400E00D420FF3F7C
:00000001FF
