:060000000A128A110C280F
:10000800FE00030EF0000A08F1000A128A11FF2B05
:100018000A128A110F280A128A1106240A128A1152
:10002800AB000A128A1107240A128A11AC000A12BC
:100038008A1108240A128A11AD000A128A110924A9
:100048000A128A11AE00FA01FB0183010A128A1111
:100058008C2B83120313A7000A30F2000030F30040
:100068002708A100A2012108F4002208F5000A12BD
:100078008A11A6200A128A11720883120313A80093
:100088000A30F2000030F3002708A100A20121087D
:10009800F4002208F5000A128A11C4210A128A11F2
:1000A800720883120313A6000A30F2000030F3002E
:1000B8002808A100A2012108F4002208F5000A126C
:1000C8008A11A6200A128A11720883120313A30048
:1000D8000A30F2000030F3002808A100A20121082C
:1000E800F4002208F5000A128A11C4210A128A11A2
:1000F800720883120313A5000A30F2000030F300DF
:100108002308A100A2012108F4002208F5000A1220
:100118008A11C4210A128A11720883120313A400D7
:100128002008023E84002608303E83138000200AFF
:1001380084002508303E8000200884002408303ED2
:1001480080000800F701F31FAA28AB28B228F2099B
:10015800F309F20A0319F30AF701F70AF51FB5289C
:10016800B628BF28F409F509F40A0319F50A01307D
:10017800FF007F08F706F801F901720873040319F4
:10018800C628C728FE28F601F60AD528013003102C
:10019800F20DF30DFF3E031DCB280130FF007F0851
:1001A800F607F31FD828D928CA2801300310F80DFC
:1001B800F90DFF3E031DDA2873087502031DE628B2
:1001C80072087402031CE928EA28F1287208F4026C
:1001D8007308031CF503F502781401300310F30CBF
:1001E800F20CFF3E031DF2280130F602031DFD2824
:1001F800FE28D92877080319022903290829F809AC
:10020800F909F80A0319F90A7908F3007808F200DD
:10021800080000300A128A11B5230A128A113430F4
:10022800F700F130F600F60B1729F70B17291C29F0
:1002380003300A128A11D7230A128A110D30F700E7
:10024800FB30F600F60B2629F70B26292B2903305D
:100258000A128A11D7230A128A111D30F700913029
:10026800F600F60B3529F70B352903300A128A11E7
:10027800D7230A128A1102300A128A11D7230A12C6
:100288008A1102300A128A11D7230A128A110830F9
:100298000A128A11D7230A128A1100300A128A1107
:1002A800D7230A128A110C300A128A11D7230A128C
:1002B8008A1100300A128A11D7230A128A110630CD
:1002C8000A128A11D7230A128A110800F700771830
:1002D8006E297229831603139F1775298316031332
:1002E8009F13721878297C29831603131F167F29F8
:1002F800831603131F127218822986298316031383
:100308009F168929831603139F12A2293F3083124F
:1003180003139F05B829831203131F083F39403878
:100328009F00B829831203131F083F3980389F00A4
:10033800B829C030831203139F04B8297308F50045
:10034800F6017608003A0319AA29B8297508013A6E
:1003580003198A29053A03198F290C3A0319962992
:100368001C3A03199D29B8297408F500F50DF50DF7
:1003780083121F087506C33975069F001F140800ED
:10038800F701F51FC829C929D029F409F509F40A84
:100398000319F50AF701F70AF31FD329D429D92934
:1003A800F209F309F20A0319F30A7208730403192C
:1003B800DE29DF290E2AF601F60AED29013003109D
:1003C800F20DF30DFF3E031DE3290130FF007F0806
:1003D800F607F31FF029F129E22973087502031DB6
:1003E800F72972087402031CFA29FB29012A7208EA
:1003F800F4027308031CF503F50201300310F30C33
:10040800F20CFF3E031D022A0130F602031D0D2ADD
:100418000E2AF12977080319122A132A182AF4092F
:10042800F509F40A0319F50A7508F3007408F200CF
:10043800080083120313A0002003031D242A252A81
:10044800442A76087F3EA3002308F70004300310EF
:10045800F70CFF3E031D2B2A7708A10023080F394C
:10046800A20021080A128A11D7230A128A118312BC
:10047800031322080A128A11D7230A128A11682A3A
:1004880002302006031D492A4A2A682A7608BF3EF8
:10049800A3002308F70004300310F70CFF3E031DE8
:1004A800502A7708A10023080F39A20021080A1250
:1004B8008A11D7230A128A118312031322080A12F7
:1004C8008A11D7230A128A11080083120313A30181
:1004D800A401922A23087707A1007808A00003182E
:1004E800A00AA31F782AA003831203132008A200DE
:1004F8002208FF00210884000A128A1129230A12FF
:100508008A110A128A11F4220A128A1101308312FE
:100518000313A3070318A40A0030A40723087707C6
:10052800A1007808A0000318A00AA31F9C2AA00312
:10053800831203132008A2002208FF002108840068
:100548000A128A1129230A128A11003A031DAD2AB8
:10055800AE2A6E2A08002B3083120313A0007B08F2
:100568000A128A112D200A128A11F601F60A0130A0
:100578000A128A111D220A128A111F30F7008030D0
:10058800F8000A128A1169220A128A112B30F70020
:100598000030F8000A128A1169220A128A11F6013B
:1005A800F60A02300A128A111D220A128A117A08E2
:1005B8000319DF2AE02AEA2A1030F7008030F80011
:1005C8000A128A1169220A128A11F32A0130F700E5
:1005D8008030F8000A128A1169220A128A1108006A
:1005E800F60076080F39F4007608F039F500831222
:1005F800031308157508F30004300310F30CFF3ECD
:10060800031D012B73080A128A11B5230A128A11D5
:100618008312031388151A30F300F30B112B000013
:1006280083120313881174080A128A11B5230A1257
:100638008A118312031388151A30F300F30B222B47
:1006480000008312031388110800FF1B332B831348
:100658007F1883170008840A0319FF0A080003306B
:100668008A000408840A820700345034553445341B
:10067800523454344134203443344534523452349F
:1006880041344434413400345034553445345234C0
:10069800543441342034413442344934453452349A
:1006A80054344134003447343A342034003401306F
:1006B8008316031788008901033083160313850006
:1006C800860183120313860183160313880183129C
:1006D800031388017030831603138F040F14F2017B
:1006E8000830F300F40100300A128A116A210A1254
:1006F8008A110A128A110D210A128A111A30F90078
:10070800F830F800F80B862BF90B862B0000080050
:100718000A128A115B230A128A110A128A11F1231A
:100728000A128A117308FB0000308312031385181C
:100738000130FA000A128A11AF220A128A117B08C4
:10074800831203138600823083120313AA00DD305C
:10075800A900A90BAD2BAA0BAD2B912B0A128A115C
:100768000C28F200721CB92BBA2BBE2B8312031370
:100778000816C12B831203130812F21CC42BC52BB5
:10078800C72B8816C82B8812721DCB2BCC2BCE2BCF
:100798000817CF2B0813F21DD22BD32BD52B881774
:1007A800D62B88130800F500831203130811750867
:1007B8000A128A11B5230A128A11831203138815A3
:1007C8000B30F4006230F300F30BE82BF40BE82B4A
:1007D80000008312031388110800831203139F1467
:1007E8009F18F72BF82BF42B1E08F300831603131E
:1007F8001E08F200080071088A00700E8300FE0EC1
:0C0808007E0E09003034303430340034EF
:04400E00D420FF3F7C
:00000001FF
