:060000000A128A110C280F
:10000800FE00030EF1000A08F2000A128A111A28EB
:100018000A128A110F28F801F901FA018312031351
:10002800A301A40183010A128A11D328831203139E
:100038008C1D1F28202870281412141B24282528FA
:100048002928941F282829282E281308A4001413C7
:100058009413141683160313941A332834284E283D
:100068001419372838284E28831203131308A400BC
:100078008C11141683160313141C432844283E2895
:10008800831203131308F900A630F000F00B4A2876
:1000980000006D28941A512852286D28141D5528DF
:1000A80056286D28831203131308A400831603131C
:1000B80014107A088312031393001416A630F00064
:1000C800F00B642800008316031314186C286D289D
:1000D8006728831203138C1172088A00710E83003B
:1000E800FE0E7E0E090083120313A00020187D283F
:1000F8008128831603139F178428831603139F13DD
:10010800731887288B28831603131F168E288316C7
:1001180003131F12731891289528831603139F162B
:100128009828831603139F12B1283F3083120313B4
:100138009F05C728831203131F083F3940389F00C3
:10014800C728831203131F083F3980389F00C72828
:10015800C030831203139F04C7287408F600F70100
:100168007708003A0319B928C7287608013A03190D
:100178009928053A03199E280C3A0319A5281C3A10
:100188000319AC28C7287508F600F60DF60D83127A
:100198001F087606C33976069F001F1408000A1246
:1001A8008A110F210A128A110A128A1152210A127F
:1001B8008A117408F800003083120313851801307F
:1001C800A300EF287808FA00FF282308FA00FF2880
:1001D8005830FA00FF287908A100A2012208003A45
:1001E8000319F728EC282108473A0319E6280E3A9C
:1001F8000319E928EC287808860082308312031353
:10020800A200DD30A100A10B0729A20B0729D828DD
:100218000A128A110C2801308316031788008901F5
:1002280003308316031385008601831203138601A6
:100238008316031388018312031388017030831611
:1002480003138F040F14F3010830F400F501003094
:100258000A128A1177200A128A1120300A128A118A
:1002680038210A128A110800F30073088316031351
:1002780093003630831203139400803083160313DF
:10028800940001309100871507168B170B178312FE
:1002980003138C11831603138C15080083120313A0
:1002A8009F149F185829592955291E08F4008316A8
:0802B80003131E08F300080007
:04400E00D420FF3F7C
:00000001FF
