:060000000A128A110C280F
:10000800FE00030EF1000A08F2000A128A1188287D
:100018000A128A110F28F801F901FA018312031351
:10002800A001A101A20183010A128A111B280A1248
:100038008A1141210A128A110A128A1199210A1277
:100048008A11003A031D29282A283A280A128A11F7
:100058007E210A128A11740883120313A100013049
:100068000A128A118C210A128A1151280A128A113D
:1000780099210A128A11013A031D4328442851285C
:100088000A128A117E210A128A117408F8000030B7
:100098000A128A118C210A128A1178088312031312
:1000A8008600003005190130A00066282108FA00F2
:1000B80079287808FA0079282008FA007928FF308A
:1000C800FA0079287908A400A5012508003A03193F
:1000D8006E2863282408473A03195A280E3A031948
:1000E80060281D3A03195D2863281A308312031308
:1000F800A500F730A400A40B7F28A50B7F2884282F
:1001080020280A128A110C28831203138C1D8D28AB
:100118008E28DE281412141B922893289728941FDF
:10012800962897289C281308A200141394131416D1
:1001380083160313941AA128A228BC281419A528E9
:10014800A628BC28831203131308A2008C111416C6
:1001580083160313141CB128B228AC288312031386
:100168001308F900A630F000F00BB8280000DB28CF
:10017800941ABF28C028DB28141DC328C428DB28EC
:10018800831203131308A2008316031314107A08AA
:100198008312031393001416A630F000F00BD22834
:1001A8000000831603131418DA28DB28D5288312D5
:1001B80003138C1172088A00710E8300FE0E7E0EE6
:1001C800090083120313A3002318EB28EF288316D2
:1001D80003139F17F228831603139F137318F52828
:1001E800F928831603131F16FC28831603131F12FE
:1001F8007318FF280329831603139F1606298316ED
:1002080003139F121F293F30831203139F053529BB
:10021800831203131F083F3940389F003529831282
:1002280003131F083F3980389F003529C0308312D7
:1002380003139F0435297408F600F7017708003A7C
:100248000319272935297608013A03190729053A98
:1002580003190C290C3A031913291C3A03191A29F2
:1002680035297508F600F60DF60D83121F08760677
:10027800C33976069F001F1408000330831603173E
:1002880088008901FF3083160313850086018312D5
:10029800031386017030831603138F040F14F301C0
:1002A8000830F400F50100300A128A11E5200A121C
:1002B8008A1120300A128A1164210A128A11080050
:1002C800F300730883160313930036308312031365
:1002D8009400803083160313940001309100871531
:1002E80007168B170B17831203138C11831603132E
:1002F8008C150800831203139F149F1884298529DD
:1003080081291E08F400831603131E08F300080051
:10031800F4007408F300F30DF30D831203131F08A0
:100328007306C33973069F000800831203131F0C5A
:08033800F300730C0F390800FB
:04400E00D420FF3F7C
:00000001FF
