:060000000A128A110C280F
:10000800FE00030EF1000A08F2000A128A117B288A
:100018000A128A110F28F801F901FA018312031351
:10002800A301A40183010A128A111A280A128A114B
:1000380034210A128A110A128A1186210A128A1197
:10004800003A031D2828292837280A128A116B210B
:100058000A128A117408F80001300A128A117921EB
:100068000A128A115A280A128A1186210A128A113A
:10007800013A031D402841285A280A128A116B2187
:100088000A128A11740883120313A30000300A129B
:100098008A1179210A128A115A287808FA006C28DC
:1000A8002308FA006C28FF30FA006C2879088312BC
:1000B8000313A100A2012208003A03196428572853
:1000C8002108473A03195128133A03195428572885
:1000D8001A3083120313A200F730A100A10B722873
:1000E800A20B722877281F280A128A110C2883125B
:1000F80003138C1D80288128D1281412141B8528ED
:1001080086288A28941F89288A288F281308A400FB
:1001180014139413141683160313941A9428952809
:10012800AF28141998289928AF28831203131308A5
:10013800A4008C11141683160313141CA428A528D4
:100148009F28831203131308F900A630F000F00B60
:10015800AB280000CE28941AB228B328CE28141D44
:10016800B628B728CE28831203131308A4008316D1
:10017800031314107A088312031393001416A6307D
:10018800F000F00BC5280000831603131418CD28BF
:10019800CE28C828831203138C1172088A00710EA6
:1001A8008300FE0E7E0E090083120313A0002018A0
:1001B800DE28E228831603139F17E5288316031306
:1001C8009F137318E828EC28831603131F16EF28CB
:1001D800831603131F127318F228F62883160313C5
:1001E8009F16F928831603139F1212293F30831292
:1001F80003139F052829831203131F083F3940382A
:100208009F002829831203131F083F3980389F0055
:100218002829C030831203139F0428297408F60084
:10022800F7017708003A03191A2928297608013AAC
:100238000319FA28053A0319FF280C3A0319062965
:100248001C3A03190D2928297508F600F60DF60D34
:1002580083121F087606C33976069F001F1408000C
:1002680003308316031788008901FF3083160313B0
:10027800850070308F040F14F3010830F400F50185
:1002880000300A128A11D8200A128A1120300A1264
:100298008A1151210A128A110800F3007308831683
:1002A80003139300363083120313940080308316AF
:1002B8000313940001309100871507168B170B174D
:1002C800831203138C11831603138C1508008312F1
:1002D80003139F149F18712972296E291E08F400B0
:1002E800831603131E08F3000800F4007408F300D3
:1002F800F30DF30D831203131F087306C339730636
:100308009F000800831203131F0CF300730C0F39AE
:020318000800DB
:04400E00D420FF3F7C
:00000001FF
