:060000000A128A110C280F
:10000800FE00030EF1000A08F2000A128A1186287F
:100018000A128A110F28F801F901FA018312031351
:10002800A001A101A20183010A128A111B280A1248
:100038008A113F210A128A110A128A1191210A1281
:100048008A11003A031D29282A2838280A128A11F9
:1000580076210A128A117408F80001300A128A11EE
:1000680084210A128A1151280A128A1191210A122E
:100078008A11013A031D4128422851280A128A117F
:1000880076210A128A11740883120313A100003022
:100098000A128A1184210A128A110030831203136A
:1000A80005190130A00064287808FA00772821088B
:1000B800FA0077282008FA007728FF30FA00772816
:1000C8007908A400A5012508003A03196C286128BD
:1000D8002408473A031958280E3A03195E281D3A8E
:1000E80003195B2861281A3083120313A500F7301F
:1000F800A400A40B7D28A50B7D28822820280A129D
:100108008A110C28831203138C1D8B288C28DC2859
:100118001412141B902891289528941F9428952828
:100128009A281308A20014139413141683160313A1
:10013800941A9F28A028BA281419A328A428BA28F2
:10014800831203131308A2008C11141683160313C9
:10015800141CAF28B028AA28831203131308F90027
:10016800A630F000F00BB6280000D928941ABD2854
:10017800BE28D928141DC128C228D92883120313E0
:100188001308A2008316031314107A0883120313AA
:1001980093001416A630F000F00BD0280000831648
:1001A80003131418D828D928D328831203138C11C1
:1001B80072088A00710E8300FE0E7E0E09008312FB
:1001C8000313A3002318E928ED28831603139F17A8
:1001D800F028831603139F137318F328F728831640
:1001E80003131F16FA28831603131F127318FD280A
:1001F8000129831603139F160429831603139F12DC
:100208001D293F30831203139F05332983120313DB
:100218001F083F3940389F003329831203131F08F2
:100228003F3980389F003329C030831203139F045D
:1002380033297408F600F7017708003A03192529CD
:1002480033297608013A03190529053A03190A29B9
:100258000C3A031911291C3A03191829332975086E
:10026800F600F60DF60D83121F087606C3397606DA
:100278009F001F14080003308316031788008901A4
:10028800FF3083160313850070308F040F14F301B9
:100298000830F400F50100300A128A11E3200A122E
:1002A8008A1120300A128A115C210A128A11080068
:1002B800F300730883160313930036308312031375
:1002C8009400803083160313940001309100871541
:1002D80007168B170B17831203138C11831603133E
:1002E8008C150800831203139F149F187C297D29FD
:1002F80079291E08F400831603131E08F30008006A
:10030800F4007408F300F30DF30D831203131F08B0
:100318007306C33973069F000800831203131F0C6A
:08032800F300730C0F3908000B
:04400E00D420FF3F7C
:00000001FF
