:060000000A128A110C280F
:10000800FE00030EF0000A08F1000A128A11B92C4A
:100018000A128A110F2883132C30FD000430FE00C9
:10002800AD30FF00203084000A128A118F240A1292
:100038008A11B601B701B801B901BA01BB01BC0107
:10004800BD01FA01FB0183010A128A114C2A2930E9
:1000580083120313AC007B080A128A11E7220A12E2
:100068008A11263083120313AC007A080A128A1107
:10007800E7220A128A11233083120313AC003D08C9
:100088000A128A11E7220A128A11203083120313F6
:10009800AC003C080A128A11E7220A128A11F601FA
:1000A800F60A01300A128A119B220A128A111B30A1
:1000B800F7008030F8000A128A1132230A128A11D6
:1000C8002930F7000030F8000A128A1132230A1288
:1000D8008A112E300A128A11AD230A128A1126308B
:1000E800F7000030F8000A128A1132230A128A1126
:1000F8002330F7008030F8000A128A1132230A12DE
:100108008A11F601F60A02300A128A119B220A1293
:100118008A111730F7008030F8000A128A1132234A
:100128000A128A112330F7000030F8000A128A11E7
:1001380032230A128A112E300A128A11AD230A12AA
:100148008A112030F7000030F8000A128A11322391
:100158000A128A111F30F7008030F8000A128A113B
:1001680032230A128A11080083120313AC000A1200
:100178008A1173240A128A110A128A119E240A12F9
:100188008A110A128A11E2230A128A1183120313AE
:10019800B6000A128A11E2230A128A118312031383
:1001A800B7000A128A11E2230A128A118312031372
:1001B800B8000A128A11E2230A128A118312031361
:1001C800B9000A128A11E2230A128A118312031350
:1001D800BA0038083707F60039087607F7003608F6
:1001E8007707AD003A082D06031DFB28FC282D29AA
:1001F8003608F600F7017608F700F60137087604A6
:10020800F800F901B71F0929F9037708F9048312DF
:1002180003132C088400780883138000840A790863
:1002280080003808F600F7017608F700F60139086B
:100238007604F800F901B91F2229F9037708F904AF
:100248007508840078088000840A790880000130E5
:100258002E2900300800F701F31F332934293B29E0
:10026800F209F309F20A0319F30AF701F70AF51F6D
:100278003E293F294829F409F509F40A0319F50A22
:100288000130FF007F08F706F801F90172087304CE
:1002980003194F2950298729F601F60A5E290130EA
:1002A8000310F20DF30DFF3E031D54290130FF002A
:1002B8007F08F607F31F61296229532901300310CB
:1002C800F80DF90DFF3E031D632973087502031D20
:1002D8006F2972087402031C722973297A2972081B
:1002E800F4027308031CF503F502781401300310B7
:1002F800F30CF20CFF3E031D7B290130F602031DAF
:10030800862987296229770803198B298C2991293D
:10031800F809F909F80A0319F90A7908F3007808BD
:10032800F200080000300A128A1137240A128A11D2
:100338003430F700F130F600F60BA029F70BA029AE
:10034800A52903300A128A1159240A128A110D307C
:10035800F700FB30F600F60BAF29F70BAF29B429ED
:1003680003300A128A1159240A128A111D30F70023
:100378009130F600F60BBE29F70BBE2903300A129E
:100388008A1159240A128A1102300A128A11592430
:100398000A128A1102300A128A1159240A128A1181
:1003A80008300A128A1159240A128A1100300A12D6
:1003B8008A1159240A128A110C300A128A115924F6
:1003C8000A128A1100300A128A1159240A128A1153
:1003D80006300A128A1159240A128A110800F701F4
:1003E800F51FF729F829FF29F409F509F40A031973
:1003F800F50AF701F70AF31F022A032A082AF20965
:10040800F309F20A0319F30A7208730403190D2A8F
:100418000E2A3D2AF601F60A1C2A01300310F20DB5
:10042800F30DFF3E031D122A0130FF007F08F60777
:10043800F31F1F2A202A112A73087502031D262A72
:1004480072087402031C292A2A2A302A7208F40224
:100458007308031CF503F50201300310F30CF20CCA
:10046800FF3E031D312A0130F602031D3C2A3D2AB6
:10047800202A77080319412A422A472AF409F5094C
:10048800F40A0319F50A7508F3007408F200080065
:100498000A128A110D240A128A111A3083120313C0
:1004A800B400F730B300B30B572AB40B572A5C2AB1
:1004B8007A30F5003C300A128A11B8200A128A11E3
:1004C80083120313BB003B0803196B2A6C2A722A98
:1004D8000A128A112B200A128A11832AF601F60AB7
:1004E80002300A128A119B220A128A110130F7007F
:1004F8008030F8000A128A1132230A128A117B0806
:100508008312031385007A088600063083120313CA
:10051800B5001330B400AD30B300B30B912AB40B5F
:10052800912AB50B912A5C2A0A128A110C28831287
:100538000313AC002C03031DA22AA32AC22A76089F
:100548007F3EAF002F08F70004300310F70CFF3E82
:10055800031DA92A7708AD002F080F39AE002D0812
:100568000A128A1159240A128A11831203132E08B7
:100578000A128A1159240A128A11E62A02302C0614
:10058800031DC72AC82AE62A7608BF3EAF002F08EF
:10059800F70004300310F70CFF3E031DCE2A77083E
:1005A800AD002F080F39AE002D080A128A11592400
:1005B8000A128A11831203132E080A128A11592467
:1005C8000A128A11080083120313B2000A30F200DB
:1005D8000030F3003208AD00AE012D08F4002E08FB
:1005E800F5000A128A112F210A128A117208831241
:1005F8000313AF000A30F2000030F3003208AD00F8
:10060800AE012D08F4002E08F5000A128A11F32114
:100618000A128A11720883120313B1000A30F20019
:100628000030F3002F08AD00AE012D08F4002E08AD
:10063800F5000A128A11F3210A128A11720883122C
:100648000313B0002C0A84003108303E8313800065
:100658002C0884003008303E800008008312031301
:10066800AF01B0015B2B2F087707AD007808AC000D
:100678000318AC0AAF1F412BAC03831203132C08D9
:10068800AE002E08FF002D0884000A128A11782374
:100698000A128A110A128A11AD230A128A1101302C
:1006A80083120313AF070318B00A0030B0072F08EE
:1006B8007707AD007808AC000318AC0AAF1F652BAC
:1006C800AC03831203132C08AE002E08FF002D087C
:1006D80084000A128A1178230A128A11003A031D2B
:1006E800762B772B372B0800FF1B822B83137F1861
:1006F80083170008840A0319FF0A080003308A00D8
:100708000408840A820700344534523452344F3482
:100718005234203464347534723461346E34743431
:10072800653420346C34653463347434753472340D
:100738006134003448343A342034003454343A3480
:1007480020340034253452344834003427344334B8
:100758000034F60076080F39F4007608F039F50011
:100768008312031308157508F30004300310F30C03
:10077800FF3E031DBA2B73080A128A1137240A1286
:100788008A118312031388151A30F300F30BCA2B4E
:10079800000083120313881174080A128A1137247F
:1007A8000A128A118312031388151A30F300F30B07
:1007B800DB2B00008312031388110800F401F301F6
:1007C80083120313081CE92BEA2BE42B1330F200E5
:1007D800F20BEC2BEF2B83120313081CF42BF52BD5
:1007E800F82B0314F40DFC2B7408F2007207F400C4
:1007F8000818FF2B002CFC2B0130FF007F08F307A3
:100808007308803A783E031C0A2C0B2CE42B7408DE
:1008180008008316031788018901831603138501CD
:1008280083120313850183160313860183120313AE
:10083800860183160313880183120313880170301D
:10084800831603138F040F140A128A1196210A12B1
:100858008A111A30F900F830F800F80B312CF90B2E
:10086800312C00000800F200721C3B2C3C2C402C60
:10087800831203130816432C831203130812F21C65
:10088800462C472C492C88164A2C8812721D4D2C50
:100898004E2C502C0817512C0813F21D542C552C93
:1008A800572C8817582C88130800F5008312031357
:1008B800081175080A128A1137240A128A1183123C
:1008C800031388150B30F4006230F300F30B6A2C25
:1008D800F40B6A2C00008312031388110800831696
:1008E800031308108312031308104130F300EE308D
:1008F800F200F20B7D2CF30B7D2C00008316031302
:1009080008141330F200F20B872C8A2C08007E089A
:100918008A007F0882000A128A118B240A128A111F
:100928008000840A04087D0603190034FF0A0319AD
:10093800FE0A8F2C831203130818A32CA42C9E2CB8
:10094800081CA72CA82CA42C0818AB2CAC2CA82C61
:10095800080030343034003430343034003430342B
:100968003034003430343034003471088A00700E6A
:080978008300FE0E7E0E090053
:04400E00D420FF3F7C
:00000001FF
