:060000000A128A110C280F
:10000800FE00030EF1000A08F2000A128A119F2866
:100018000A128A110F280A128A11DF210A128A117C
:10002800B200A001A101A201A301A401A501A6019A
:10003800A701A801F701F801F90183010A128A1141
:10004800FC2883120313AD000A128A119B210A129D
:100058008A110A128A11D0210A128A110A128A11E7
:100068004E210A128A1183120313A0000A128A1160
:100078004E210A128A1183120313A1000A128A114F
:100088004E210A128A1183120313A2000A128A113E
:100098004E210A128A1183120313A3000A128A112D
:1000A8004E210A128A1183120313A4002208210781
:1000B800A90023082907AA0020082A07AE00240857
:1000C8002E06031D682869289D282008A900AA0172
:1000D8002908AA00A90121082904AB00AC01A11F25
:1000E8007628AC03831203132A08AC042D08840075
:1000F8002B0883138000840A2C0880002208A9009A
:10010800AA012908AA00A90123082904AB00AC0107
:10011800A31F8F28AC03831203132A08AC047608A4
:1001280084002B0883138000840A2C088000013087
:100138009E2800300800831203138C1DA428A528CC
:10014800F5281412141BA928AA28AE28941FAD2834
:10015800AE28B3281308F900141394131416831641
:100168000313941AB828B928D3281419BC28BD2811
:10017800D328831203131308F9008C11141683165D
:100188000313141CC828C928C3288312031313088F
:10019800F700A630F000F00BCF280000F228941AE0
:1001A800D628D728F228141DDA28DB28F22883124B
:1001B80003131308F9008316031314107808831225
:1001C800031393001416A630F000F00BE928000082
:1001D800831603131418F128F228EC28831203134A
:1001E8008C1172088A00710E8300FE0E7E0E0900C3
:1001F8000A128A1179210A128A110A128A119B217C
:100208000A128A11023083120313B1000430B000BD
:10021800B930AF00AF0B0E29B00B0E29B10B0E2968
:1002280015292530F60027300A128A1125200A12CE
:100238008A1183120313B200770886003229260830
:10024800F80048292508F80048292808F80048290E
:100258002708F80048295830F80048297708AF00DF
:10026800B0013008003A03193A292F292F08483AD3
:10027800031929291C3A031923293C3A03192C2963
:100288001C3A031926292F297808850006290A12FD
:100298008A110C28F501F40183120313081C55294F
:1002A800562950291330F300F30B58295B29831280
:1002B8000313081C6029612964290314F50D6829B2
:1002C8007508F3007307F50008186B296C2968296D
:1002D8000130FF007F08F4077408803A783E031C59
:1002E800762977295029750808008316031788018D
:1002F800890183160313850183120313850183166D
:1003080003138601831203138601831603138801DE
:100318008312031388017030831603138F040F149C
:1003280010300A128A11B6210A128A11080083169F
:10033800031308108312031308104130F400EE3041
:10034800F300F30BA529F40BA5290000831203136E
:1003580008148316031308141330F300F30BB2299F
:10036800B5290800F3007308831603139300363089
:100378008312031394008030831603139400013012
:100388009100871507168B170B17831203138C110F
:10039800831603138C150800831203130818D52934
:1003A800D629D029081CD929DA29D6290818DD29FF
:0803B800DE29DA2908000134F6
:04400E00D420FF3F7C
:00000001FF
