:060000000A128A110C280F
:10000800FE00030EF1000A08F2000A128A111029F4
:100018000A128A110F280A128A11EC210A128A116F
:10002800F900A001A101A201A301A401A501A60153
:10003800A701A801A901AA01F701F80183010A1281
:100048008A11A02883120313AF000A128A1198217B
:100058000A128A110A128A11DD210A128A110A1259
:100068008A116D210A128A1183120313A0000A1241
:100078008A116D210A128A1183120313A1000A1230
:100088008A116D210A128A1183120313A2000A121F
:100098008A116D210A128A1183120313A3000A120E
:1000A8008A116D210A128A1183120313A4002208EF
:1000B8002107AB0023082B07AC0020082C07B00051
:1000C80024083006031D69286A289E282008AB00EA
:1000D800AC012B08AC00AB0121082B04AD00AE012C
:1000E800A11F7728AE03831203132C08AE042F0830
:1000F80084002D0883138000840A2E0880002208BB
:10010800AB00AC012B08AC00AB0123082B04AD00FD
:10011800AE01A31F9028AE03831203132C08AE046C
:10012800760884002D0883138000840A2E08800036
:1001380001309F28003008000A128A11CD210A12C6
:100148008A110A128A1198210A128A1134308312EC
:100158000313B200F130B100B10BB028B20BB028D4
:100168000A128A1198210A128A1134308312031351
:10017800B200F130B100B10BBF28B20BBF28FA3082
:100188007902031CC828C928E5282730F600293039
:100198000A128A1126200A128A1183120313A50053
:1001A800F901E5282808F800FD282708F800FD28A7
:1001B8002A08F800FD282908F800FD28FF30F80073
:1001C800FD28770883120313B100B2013208003A00
:1001D8000319EF28E2283108483A0319DC281C3AA9
:1001E8000319D6283C3A0319DF281C3A0319D928E1
:1001F800E2280130FF007F08F9071A308312031341
:10020800B200F730B100B10B0729B20B07290C294E
:10021800C3280A128A110C28831203138C1D15296E
:10022800162966291412141B1A291B291F29941F21
:100238001E291F2924291308A60014139413141621
:1002480083160313941A29292A29442914192D29B4
:100258002E294429831203131308A6008C1114169F
:1002680083160313141C39293A29342983120313DA
:100278001308F700A630F000F00B402900006329AE
:10028800941A472948296329141D4B294C296329A5
:10029800831203131308A600831603131410780897
:1002A8008312031393001416A630F000F00B5A299A
:1002B8000000831603131418622963295D29831229
:1002C80003138C1172088A00710E8300FE0E7E0ED5
:1002D8000900F501F40183120313081C7429752918
:1002E8006F291330F300F30B77297A29831203134C
:1002F800081C7F29802983290314F50D872975088F
:10030800F3007307F50008188A298B29872901301B
:10031800FF007F08F4077408803A783E031C95298B
:1003280096296F297508080083160313081083128D
:10033800031308104130F400EE30F300F30BA22948
:10034800F40BA22900008312031308148316031365
:1003580008141330F300F30BAF29B2290800F30097
:100368007308831603139300363083120313940023
:100378008030831603139400013091008715071607
:100388008B170B17831203138C11831603138C1509
:100398000800831603178801890170308316031338
:1003A8008F040F1410300A128A11B3210A128A110D
:1003B8000800831203130818E229E329DD29081C21
:1003C800E629E729E3290818EA29EB29E72908009B
:0203D800FA34F5
:04400E00D420FF3F7C
:00000001FF
