:060000000A128A110C280F
:10000800FE00030EF0000A08F1000A128A11812C82
:100018000A128A110F280A128A1188240A128A11D0
:10002800FB0083132030840035300A128A117924AA
:100038000A128A1183010A128A11352A2E30FA000F
:100048008312031332080A128A11CD220A128A1166
:100058002B30FA008312031331080A128A11CD22B9
:100068000A128A112830FA008312031334080A127C
:100078008A11CD220A128A112530FA00831203133D
:1000880033080A128A11CD220A128A11F601F60AD9
:1000980001300A128A1181220A128A111630F700D9
:1000A8008030F8000A128A1118230A128A112E3099
:1000B800F7000030F8000A128A1118230A128A1170
:1000C8002E300A128A115C230A128A112B30F7008B
:1000D8000030F8000A128A1118230A128A111A30FD
:1000E800F7008030F8000A128A1118230A128A11C0
:1000F800F601F60A02300A128A1181220A128A11BE
:100108000C30F7008030F8000A128A1118230A12FE
:100118008A112830F7000030F8000A128A111823D3
:100128000A128A111130F7008030F8000A128A1179
:1001380018230A128A11080083120313B5000A1241
:100148008A1128240A128A110A128A115D240A12B5
:100158008A110A128A11BD230A128A118312031303
:10016800A0000A128A11BD230A128A1183120313EE
:10017800A1000A128A11BD230A128A1183120313DD
:10018800A2000A128A11BD230A128A1183120313CC
:10019800A3000A128A11BD230A128A1183120313BB
:1001A800A40022082107F60023087607F700200894
:1001B8007707B60024083606031DE328E428162925
:1001C8002008F600F7017608F700F6012108760402
:1001D800F800F901A11FF128F9037708F90483123F
:1001E800031335088400780883138000840A79088B
:1001F80080002208F600F7017608F700F6012308C8
:100208007604F800F901A31F0A29F9037708F9040D
:1002180075088400780883138000840A79088000B0
:100228000130172900300800F701F31F1C291D2988
:100238002429F209F309F20A0319F30AF701F70A64
:10024800F51F272928293129F409F509F40A031982
:10025800F50A0130FF007F08F706F801F901720876
:1002680073040319382939297029F601F60A472930
:1002780001300310F20DF30DFF3E031D3D2901303F
:10028800FF007F08F607F31F4A294B293C29013054
:100298000310F80DF90DFF3E031D4C297308750274
:1002A800031D582972087402031C5B295C29632901
:1002B8007208F4027308031CF503F5027814013080
:1002C8000310F30CF20CFF3E031D64290130F60203
:1002D800031D6F2970294B2977080319742975297B
:1002E8007A29F809F909F80A0319F90A7908F300CB
:1002F8007808F200080000300A128A11E8230A126E
:100308008A113430F700F130F600F60B8929F70B23
:1003180089298E2903300A128A1143240A128A1164
:100328000D30F700FB30F600F60B9829F70B9829EB
:100338009D2903300A128A1143240A128A111D309A
:10034800F7009130F600F60BA729F70BA729033021
:100358000A128A1143240A128A1102300A128A11D7
:1003680043240A128A1102300A128A1143240A12FB
:100378008A1108300A128A1143240A128A1100309D
:100388000A128A1143240A128A110C300A128A119D
:1003980043240A128A1100300A128A1143240A12CD
:1003A8008A1106300A128A1143240A128A11080097
:1003B800F701F51FE029E129E829F409F509F40A0C
:1003C8000319F50AF701F70AF31FEB29EC29F129BC
:1003D800F209F309F20A0319F30A720873040319FC
:1003E800F629F729262AF601F60A052A013003100C
:1003F800F20DF30DFF3E031DFB290130FF007F08BE
:10040800F607F31F082A092AFA2973087502031D3B
:100418000F2A72087402031C122A132A192A720856
:10042800F4027308031CF503F50201300310F30C02
:10043800F20CFF3E031D1A2A0130F602031D252A7D
:10044800262A092A770803192A2A2B2A302AF40986
:10045800F509F40A0319F50A7508F3007408F2009F
:1004680008000A128A110A240A128A110A128A1129
:1004780028240A128A11153083120313BD004B3049
:10048800BC00BD30BB00BB0B472ABC0B472ABD0BC9
:10049800472A4E2A3130F50033300A128A11A0203B
:1004A8000A128A11FB007B0803195B2A5C2A672A57
:1004B8000A128A116C240A128A110A128A1122203D
:1004C8000A128A113F2AF601F60A02300A128A1124
:1004D80081220A128A110A128A116C240A128A11BC
:1004E8000130F7008030F8000A128A1118230A1226
:1004F8008A113F2A0A128A110C2883120313B500A5
:100508003503031D882A892AA82A76087F3EB80061
:100518003808F70004300310F70CFF3E031D8F2A3C
:100528007708B60038080F39B70036080A128A115A
:1005380043240A128A118312031337080A128A11F4
:1005480043240A128A11CC2A02303506031DAD2A2B
:10055800AE2ACC2A7608BF3EB8003808F700043027
:100568000310F70CFF3E031DB42A7708B6003808BD
:100578000F39B70036080A128A1143240A128A1161
:100588008312031337080A128A1143240A128A11A4
:10059800080083120313BA000A30F2000030F30097
:1005A8003A08B500B6013508F4003608F5000A1215
:1005B8008A1118210A128A11720883120313B700CC
:1005C8000A30F2000030F3003A08B500B6013508E9
:1005D800F4003608F5000A128A11DC210A128A1181
:1005E800720883120313B9000A30F2000030F300D6
:1005F8003708B500B6013508F4003608F5000A12C8
:100608008A11DC210A128A11720883120313B800B6
:100618007A0A84003908303E831380007A088400FF
:100628003808303E80000800F901FA013D2B7908AE
:100638007707B6007808B5000318B50AF91F252B07
:10064800B503831203133508B7003708FF003608CF
:1006580084000A128A1191230A128A110A128A1135
:100668005C230A128A110130F9070318FA0A0030CC
:10067800FA077908770783120313B6007808B500DC
:100688000318B50AF91F492BB5038312031335085C
:10069800B7003708FF00360884000A128A11912330
:1006A8000A128A11003A031D5A2B5B2B1B2B0800D8
:1006B800F60076080F39F4007608F039F500831251
:1006C800031308157508F30004300310F30CFF3EFC
:1006D800031D692B73080A128A11E8230A128A116A
:1006E8008312031388151A30F300F30B792B0000DB
:1006F80083120313881174080A128A11E8230A1254
:100708008A118312031388151A30F300F30B8A2B0E
:1007180000008312031388110800FF1B9B2B83130F
:100728007F1883170008840A0319FF0A080003309A
:100738008A000408840A820700345234453441345C
:10074800443420344534523452344F345234003413
:1007580048343A3420342034003420342534523498
:100768004834003454343A34203400342734433481
:100778000034F401F30183120313081CC42BC52BA6
:10078800BF2B1330F200F20BC72BCA2B83120313B3
:10079800081CCF2BD02BD32B0314F40DD72B7408A4
:1007A800F2007207F4000818DA2BDB2BD72B013084
:1007B800FF007F08F3077308803A783E031CE52B97
:1007C800E62BBF2B74080800F200721CEC2BED2BF3
:1007D800F12B831203130816F42B83120313081248
:1007E800F21CF72BF82BFA2B8816FB2B8812721D9C
:1007F800FE2BFF2B012C0817022C0813F21D052CC9
:10080800062C082C8817092C881308008316031750
:100818008801890183160313880183120313880151
:100828007030831603138F040F140A128A117F2164
:100838000A128A111A30F900F830F800F80B222C45
:10084800F90B222C000008008316031308108312EA
:10085800031308104130F300EE30F200F20B322C93
:10086800F30B322C000083120313081483160313AE
:1008780008141330F200F20B3F2C422C0800F5004C
:1008880083120313081175080A128A11E8230A1241
:100898008A118312031388150B30F4006230F300B9
:1008A800F30B542CF40B542C0000831203138811FF
:1008B8000800831203130818622C632C5D2C081C93
:1008C800662C672C632C08186A2C6B2C672C080084
:1008D80000300A128A1143240A128A1101300A12BE
:1008E8008A1143240A128A11080064008001840ACC
:1008F80004060319003404067A2C71088A00700E65
:0A0908008300FE0E7E0E090001348C
:04400E00D420FF3F7C
:00000001FF
