:060000000A128A110C280F
:10000800FE00030EF1000A08F2000A128A110629FE
:100018000A128A110F280A128A11E2210A128A1179
:10002800F900A001A101A201A301A401A501A60153
:10003800A701A801A901AA01F701F80183010A1281
:100048008A11A02883120313AF000A128A118E2185
:100058000A128A110A128A11D3210A128A110A1263
:100068008A1163210A128A1183120313A0000A124B
:100078008A1163210A128A1183120313A1000A123A
:100088008A1163210A128A1183120313A2000A1229
:100098008A1163210A128A1183120313A3000A1218
:1000A8008A1163210A128A1183120313A4002208F9
:1000B8002107AB0023082B07AC0020082C07B00051
:1000C80024083006031D69286A289E282008AB00EA
:1000D800AC012B08AC00AB0121082B04AD00AE012C
:1000E800A11F7728AE03831203132C08AE042F0830
:1000F80084002D0883138000840A2E0880002208BB
:10010800AB00AC012B08AC00AB0123082B04AD00FD
:10011800AE01A31F9028AE03831203132C08AE046C
:10012800760884002D0883138000840A2E08800036
:1001380001309F28003008000A128A11C3210A12D0
:100148008A110A128A118E210A128A110230831228
:100158000313B3000430B200B930B100B10BB228B8
:10016800B20BB228B30BB228B928FA307902031CB3
:10017800BE28BF28DB282730F60029300A128A114A
:1001880026200A128A1183120313A500F901DB281D
:100198002808F800F3282708F800F3282A08F800A8
:1001A800F3282908F800F328FF30F800F328770827
:1001B80083120313B100B2013208003A0319E5288B
:1001C800D8283108483A0319D2281C3A0319CC28F0
:1001D8003C3A0319D5281C3A0319CF28D8280130EE
:1001E800FF007F08F9071A3083120313B200F730B3
:1001F800B100B10BFD28B20BFD280229B9280A125B
:100208008A110C28831203138C1D0B290C295C29D5
:100218001412141B102911291529941F14291529A2
:100228001A291308A600141394131416831603131B
:10023800941A1F2920293A291419232924293A29EB
:10024800831203131308A6008C11141683160313C4
:10025800141C2F2930292A29831203131308F700A5
:10026800A630F000F00B362900005929941A3D29D0
:100278003E295929141D412942295929831203135A
:100288001308A600831603131410780883120313A7
:1002980093001416A630F000F00B502900008316C6
:1002A80003131418582959295329831203138C113D
:1002B80072088A00710E8300FE0E7E0E0900F50199
:1002C800F40183120313081C6A296B29652913306A
:1002D800F300F30B6D29702983120313081C752989
:1002E800762979290314F50D7D297508F30073071C
:1002F800F5000818802981297D290130FF007F0831
:10030800F4077408803A783E031C8B298C296529E8
:1003180075080800831603130810831203130810C6
:100328004130F400EE30F300F30B9829F40B9829D0
:1003380000008312031308148316031308141330E0
:10034800F300F30BA529A8290800F3007308831606
:1003580003139300363083120313940080308316FE
:100368000313940001309100871507168B170B179C
:10037800831203138C11831603138C15080083163C
:100388000317880189017030831603138F040F1433
:1003980010300A128A11A9210A128A110800831240
:1003A80003130818D829D929D329081CDC29DD29E1
:0E03B800D9290818E029E129DD290800FA34C6
:04400E00D420FF3F7C
:00000001FF
